:0517A100C10D011F0055
:10239800EF600ED2A0D20D543FFFE51F54C04FF599
:0223A8001F22F2
:1023CD00C2A0C20DE4F51FE51F543F44C0F51F2206
:1022D500300D1CE51F543FFF7002800F1FEF543F68
:1022E500FEE51F54C04EF51FEF7004C2A0C20D22BB
:102215007889E6FC08E6FDC394D0EC9407401AD310
:10222500ED9433EC9408501108E6FEC3940140097F
:0A223500EED3940C500312239822FC
:050003007F0A02221536
:050FFB007F3202221507
:1020E000788FE6543FFFE51FC4131354036F602E2F
:1020F000EF543FC4333354C0FEE51F543F4EF51F29
:1021000018E6FBB43B0FEFC394374009EFD3943B81
:0F2110005003020003EB7006EF7003120FFB2267
:0C2423001F1C1F1E1F1E1F1F1E1F1E1F40
:0C17A600088907E90B0E112A0000C10E93
:10235F005389F0438901758CB8E4F58AD2A9D2AFBD
:03236F00D28C22EB
:1023BC00789006E6C394644007E4F6122099D20E96
:0123CC0022EE
:10226800AB07AA06EB5403700AFC7D6412141BED3D
:102278004C700FAE02AF037C017D9012141BED4C25
:0822880070037F01227F002298
:102189008E3A8F3B8D3C783D7C007D007BFF7A2425
:1021990079237E007F0C1213D1E53CB4020DAF3BCD
:1021A900AE3A122268EF60037F1D22743C253CF889
:0321B900E6FF221C
:10209900788F06E6C3943C403DE4F61806E6943C86
:1020A9004034E4F61806E69418402BE4F61806784E
:1020B90089E6FE08E6FF08E6FD122189788CE6D359
:1020C9009F401376011806E6D3940C40097601184F
:0720D90006E6187001062263
:0E23ED007889A60608A60708A60508A60322FA
:0E23FB00788DA60708A60508A603E408F622BA
:101E81002424A4FE232200C03800FF0008106000B3
:101E9100080601FF01068180404027100C03000065
:101EA10000042424242424FF2424242424040000C2
:101EB10021211109FD8341230509112925414100F2
:101EC100FF7F3F1F0F070301FFFEFCF8F0E0C0801A
:1017B200017FFFC10F017DFF0178FF016EFF0179FB
:0917C200FF0375FFFFFF017EFF2C
:100F98008F458D468B47E4F548E547C43354E02434
:100FA80081F582E4341EF583E5822548F582E4352F
:100FB80083F583E493FBE5462548FDAF4512232ED0
:100FC800E547C43354E02491F582E4341EF583E503
:100FD800822548F582E43583F583E493FBE54504EF
:100FE800FFE5462548FD12232E0548E548C3941021
:030FF80040A722ED
:101D4F00EF7004F545800BBF0105754503800375E2
:101D5F004506C374809464FFE49400C313EF13FF2C
:101D6F00D3940A4006EF24F6FF80027F008F46309F
:101D7F000931E4F547E5462547FDE547901EC99330
:101D8F00FBAF4512232EE54504FFE5462547FDE54C
:101D9F0047901EC193FB12232E0547E547C39408B6
:101DAF0040D322E54504FDE5462407F54BAB46AF8E
:051DBF004512223F2245
:061CD3009209AD44E4FF9C
:101CD9008F458D46AF031221BC8F48E4F54775F057
:101CE90010E548A4240EF582E5F03400F583E58279
:101CF9002547F582E43583F583E493F549E54625DF
:101D090047FDAB49AF4512232E75F010E548A424D1
:101D190016F582E5F03400F583E5822547F582E47E
:101D29003583F583E493F549300903434980E54553
:101D390004FFE5462547FDAB4912232E0547E54734
:061D4900C394084099223A
:0B1C52002430FBA2069209AD44AF4312
:101C5D008F458D46AF031221BC8F48E4F54775F0D3
:101C6D0020E548A424EEF582E5F03400F583E58205
:101C7D002547F582E43583F583E493F549E546255B
:101C8D0047FDAB49AF4512232E75F020E548A4243E
:101C9D00FEF582E5F03400F583E5822547F582E413
:101CAD003583F583E493F549300903434980E545D0
:101CBD0004FFE5462547FDAB4912232E0547E547B1
:061CCD00C39410409922AF
:0D23AA00FDE675F00A84E5F02430FBE4FF49
:0523B700C209021CD95F
:0B23DD00740C2544F5447B3AFDAF432F
:0523E800C209021C5DAA
:101AE2008F1B8D1CAF031221BC8F1EE4F51D75F0F8
:101AF20060E51EA424AEF582E5F03402F583E582AA
:101B0200251DF582E43583F583E493FBE51C251D51
:101B1200FDAF1B12232E051DE51DC3941840CFE413
:101B2200F51D75F060E51EA424C6F582E5F03402C9
:101B3200F583E582251DF582E43583F583E493FB85
:101B4200E51B04FFE51C251DFD12232E051DE51DC9
:101B5200C3941840CDE4F51D75F060E51EA424DEA3
:101B6200F582E5F03402F583E582251DF582E43540
:101B720083F583E493FBE51B2402FFE51C251DFD91
:101B820012232E051DE51DC3941840CCE4F51D75E6
:101B9200F060E51EA424F6F582E5F03402F583E553
:101BA20082251DF582E43583F583E493FBE51B244E
:101BB20003FFE51C251DFD12232E051DE51DC39403
:041BC2001840CC22D9
:10100000787FE66003D38001C39208E4787FF630EE
:10101000080A754B7FFB7D07FF12223FE513B402E0
:1010200003D38001C39200E513B40303D38001C34B
:101030009201E513B40103D38001C3920730001578
:1010400085093A850A3B85083C850B3DC3740795A5
:101050000EF53F80117889E6F53A08E6F53B08E69B
:10106000F53C08E6F53D30010B850D4085144185C2
:101070001042800D788DE6F54008E6F54108E6F56A
:1010800042300108E50EB40503D38001C39202305B
:101090000108E50EB40403D38001C39203300108B4
:1010A000E50EB40303D38001C39204300108E50EBA
:1010B000B40203D38001C3920530010AE50E600338
:1010C000B40103D38001C39206754418AE3AAF3B16
:1010D0007C037DE812141BEF2430FB300007E53F52
:1010E0007003D38001C3121CD374082544F544AEA9
:1010F0003AAF3B7C007D6412141B7C007D0A121405
:101100001BED2430FB300008E53FB40103D3800120
:10111000C3121CD374082544F544AE3AAF3B7C009F
:101120007D0A12141B7C007D0A12141BED2430FB77
:10113000300008E53FB40203D38001C3121CD3740E
:10114000082544F544AE3AAF3B7C007D0A12141BDF
:10115000ED2430FB300008E53FB40303D38001C326
:10116000121CD374082544F5447B2DFDE4FF1223A3
:10117000B774082544F544E53C75F00A842430FB37
:10118000300008E53FB40403D38001C3121CD374BC
:10119000082544F544E53C75F00A84E5F02430FB6D
:1011A000300008E53FB40503D38001C3121CD3749B
:1011B000082544F5447B2DFDE4FF1223B774082570
:1011C00044F544E53D75F00A842430FB300008E521
:1011D0003FB40603D38001C3121CD374082544F521
:1011E00044E53D75F00A84E5F02430FB300008E565
:1011F0003FB40703D38001C3121CD3754303C374E8
:10120000809464FFE49400C313EF13F544E5407544
:10121000F00A842430FBA202121C57740C2544F5FA
:1012200044E54075F00A84E5F02430FBA203121C6B
:10123000571223DD740C2544F544E54175F00A840A
:101240002430FBA204121C57740C2544F544E541DC
:1012500075F00A84E5F02430FBA205121C57122316
:10126000DD740C2544F544E54275F00A84121C52E5
:10127000740C2544F544E54275F00A84E5F0121C2F
:1012800052E4FB7D307F06120F987B017D407F0684
:10129000120F9830075A787EE6FFF4600AEF650F68
:1012A0006005C209121D4F30102CE50F7003D3806A
:1012B00001C39209E4FF121D4FE50FB40103D3806F
:1012C00001C392097F01121D4FE50FB40203D380C1
:1012D00001C392098010C209E4FF121D4FC2097FA9
:1012E00001121D4FC2097F02121D4F787EA60F22E8
:1012F000787EE6FFF46009C209121D4F787E76FF02
:0113000022CA
:101FBD00C20F787D76FF787876FF786E76FF787928
:101FCD0076FFE47880F67880E6FFC394035023749F
:101FDD00752FF876FF747A2FF876FF746F2FF876D9
:101FED00FF746B2FF876FF74722FF876FF788006EA
:031FFD0080D4226B
:10080000300F07787FE664026003D38001C3920053
:1008100030004D754B7FE4FB7D07FF12223FD20F66
:10082000787D76FF787876FF786E76FF787976FF38
:10083000E47885F67885E6FFC39403502374752F1A
:10084000F876FF747A2FF876FF746F2FF876FF74BE
:100850006B2FF876FF74722FF876FF78850680D4B8
:10086000787F7602753D00753E00753F81754000CA
:100870007541007542827543007544007545837B60
:10088000007A00798012072E78847610200008798B
:100890007DE7788066601E7884E6FD7880E675F0F6
:1008A0000A841223B27884E6240878801223AA7876
:1008B00080E6787DF67884E62410FD7B3AE4FF122A
:1008C00023B72000087978E778816660207884E68D
:1008D0002418FD7881E675F00A841223B27884E644
:1008E000242078811223AA7881E67878F67884E645
:1008F0002428FD7B3AE4FF1223B7200008796EE735
:1009000078826660217884E62430FD7882E675F08E
:100910000A841223B27884E62438FD78821223AB4D
:100920007882E6786EF67884E62440F536E4F5378A
:10093000E5362537FDE4FBFF12232EE5362537FD8E
:10094000E53764036005E537B404047B1880027B57
:10095000007F0112232E0537E537C3940840D120CC
:1009600000087979E778836660117884E62448FD89
:1009700018E61223B27883E67879F6E47885F6787B
:1009800085E6FFC3940340028123E6FE25E02402AE
:1009900008F67850E6FDEEC39D400261E2ED14C317
:1009A0009F7887F60408F620005A7885E6FF2475BC
:1009B000F97887E6FE67704CEE25E025E02457F9CC
:1009C000747A2FF8E667703C7887E6FF25E025E02B
:1009D0002458F97885E6FE246FF8E6677026EF253F
:1009E000E025E02459F9746B2EF8E66770167887D5
:1009F000E625E025E0245AF97885E62472F8E667D2
:100A00007002811EE4F5367537207886E6FF04FD16
:100A1000754B7FE4FB12223F7886E6FF7B4CAD36B8
:100A20001223B774082536F5367886E6FF7888E60F
:100A3000FEC3940A400BEE75F00A842430FEFB805E
:100A4000027B20AD361223B774082536F53678863A
:100A5000E6FF7888E675F00A84E5F02430FBAD36D1
:100A60001223B77887E625E025E02457F8E675F0ED
:100A70000A842430FB7886E6FFAD371223B77887E7
:100A8000E625E025E02457F8E675F00A84E5F02431
:100A900030FB7886E6FFE5372408FD1223B7788619
:100AA000E6FFE5372410FD7B3A1223B77887E62569
:100AB000E025E02458F8E675F00A842430FB7886B7
:100AC000E6FFE5372418FD1223B77887E625E025F1
:100AD000E02458F8E675F00A84E5F02430FB7886C7
:100AE000E6FFE5372420FD1223B77886E6FFE537D9
:100AF0002428FD7B3A1223B77887E625E025E024F9
:100B000059F8E675F00A842430FB7886E6FFE5376D
:100B10002430FD1223B77887E625E025E02459F834
:100B2000E675F00A84E5F02430FB7886E6FFE537C9
:100B30002438FD1223B7E5372440F538E4F5397839
:100B400086E6FFE5382539FDE4FB12232E7886E69C
:100B500004FFE5382539FDE53964036005E539B45E
:100B600004047B1880027B0012232E0539E539C36B
:100B7000940840CB7887E625E025E0245AF8E6245F
:100B800030FB7886E6FFE5372448FD1223B77887E7
:100B9000E6FF7885E6FE2475F8A607EF25E025E058
:100BA0002457F8E6FF747A2EF8A6077887E6FF2523
:100BB000E025E02458F8E6FD746F2EF8A605EF2531
:100BC000E025E02459F8E6FF746B2EF8A607788735
:100BD000E625E025E0245AF8E6FF74722EF8A60711
:100BE000803C20000A7885E62475F8E6F4602F78CA
:100BF00086E6FF04FD754B7FE4FB12223F7885E615
:100C0000FF2475F876FF747A2FF876FF746F2FF84B
:100C100076FF746B2FF876FF74722FF876FF788565
:040C200006217F2208
:10180000787FE6640260031222B3787F7602785113
:10181000E625E025E07882F6E47880F67880E6FF39
:1018200025E07883F618E6FD2FFFE433FE7850E6D6
:10183000FBC3EF9B7480F86E98400221B6ED788070
:101840002608F6047884F618E6FF04FD754B7FE45D
:10185000FB12223F7883E6FF08E6FEC3940A400BA2
:10186000EE75F00A842430FEFB80027B20E4FD123A
:1018700023B77883E6FF08E675F00A84E5F02430A4
:10188000FB7D081223B77536207881E625E025E038
:101890002457F8E675F00A842430FB7883E6FFAD20
:1018A000361223B77881E625E025E02457F8E6755F
:1018B000F00A84E5F02430FB7883E6FFE53624085F
:1018C000FD1223B77883E6FFE5362410FD7B3A123C
:1018D00023B77881E625E025E02458F8E675F00A7C
:1018E000842430FB7883E6FFE5362418FD1223B705
:1018F0007881E625E025E02458F8E675F00A84E5CD
:10190000F02430FB7883E6FFE5362420FD1223B770
:101910007883E6FFE5362428FD7B3A1223B77881E9
:10192000E625E025E02459F8E675F00A842430FB2A
:101930007883E6FFE5362430FD1223B77881E6256B
:10194000E025E02459F8E675F00A84E5F02430FB40
:101950007883E6FFE5362438FD1223B7E5362440C8
:10196000F537E4F5387883E6FFE5372538FDE4FB05
:1019700012232E7883E604FFE5372538FDE5386429
:10198000036005E538B404047B1880027B00122351
:101990002E0538E538C3940840CB7881E625E0254C
:1019A000E0245AF8E62430FB7883E6FFE536244845
:1019B000FD1223B7800E7883E6FF04FD754B7FE4AC
:1019C000FB12223F788006E6C394045002011C22D9
:10000E0000E010080810E000000F102020100F0074
:10001E00001010F8000000000020203F20200000FB
:10002E000070080808887000003028242221300053
:10003E0000300888884830000018202020110E005B
:10004E000000C02010F8000000070424243F240004
:10005E0000F80888880808000019212020110E00D9
:10006E0000E0108888180000000F112020110E00EB
:10007E0000380808C83808000000003F00000000E3
:10008E000070880808887000001C222121221C00A4
:10009E0000E010080810E0000000312222110F00CD
:1000AE00000000C0C0000000000000303000000062
:1000BE00000000000000000000010101010101002C
:1000CE0000000000806018040060180601000000A7
:1000DE000000000000000000000000000000000012
:1000EE000000F0F80C04040CF8F000000000000012
:1000FE0000000F1F302020301F0F000000000000F6
:10010E000000001010FCFC000000000000000000C9
:10011E0000000020203F3F202000000000000000D3
:10012E000000181C0404040CF8F00000000000008D
:10013E00000030382C262321203000000000000063
:10014E000000181C848484CC783800000000000065
:10015E0000001838202020311F0E00000000000083
:10016E0000000080C06030FCFC00000000000000B9
:10017E00000007050404043F3F04040000000000D3
:10018E000000FCFC848484840C0C00000000000041
:10019E0000001838202020311F0E00000000000043
:1001AE000000F0F84C4444CC881800000000000019
:1001BE0000000F1F302020301F0F00000000000035
:1001CE0000000C0C040484E47C1C00000000000001
:1001DE0000000000003E3F01000000000000000093
:1001EE00000078FC84040484FC7800000000000009
:1001FE0000001E3F212020213F1E000000000000B5
:10020E000000F0F80C04040CF8F0000000000000F0
:10021E0000001833222222321F0F000000000000BF
:10022E000000000000606000000000000000000000
:10023E000000000000303000000000000000000050
:10024E0000000000000000000000000000000000A0
:10025E000000020202020202020200000000000080
:10026E00000000000080E0781E0600000000000084
:10027E000000303C0F0300000000000000000000F2
:10028E000000000000000000000000000000000060
:10029E000000000000000000000000000000000050
:1002AE00000000C0F0F83C0E060707070707060E11
:1002BE003CF8F0C0000000000000F0FFFF0F00004F
:1002CE000000000000000000000FFFFFF000000023
:1002DE0000000FFFFFF00000000000000000000013
:1002EE0000F0FFFF0F000000000000030F1F3C7026
:1002FE0060E0E0E0E0E060703C1F0F0300000000F3
:10030E000000000000000000000000FCFCFC0000EB
:10031E0000000000000000000000000000000000CF
:10032E00000000FFFFFF00000000000000000000C2
:10033E000000000000000000000000FFFFFF0000B2
:10034E00000000000000000000000000000000009F
:10035E00000000FFFFFF0000000000000000000092
:10036E000000001C1E0E07070707070707070E1ED3
:10037E00FCF8F0000000000000000000000000008B
:10038E0000000080E0F8FE7F1F0701000000000063
:10039E000000C0F0FCFE7F1F0F07030100000000ED
:1003AE0000000000000000000000E0E0E0E0E0E0FF
:1003BE00E0E0E0E0E0E0E0E0E0E0E0E000000000AF
:1003CE000000001C1E0E07070707070707070E1E73
:1003DE00FCF8F0000000000000000000000000002B
:1003EE000E0E0E0E0E0E0F1FFBF1E00000000000B1
:1003FE000000000000000000707070707070F0F867
:10040E00DF8F070000000000000000387870E0E089
:10041E00E0E0E0E0E0E070783F1F0F000000000039
:10042E000000000000000000C0F0FCFEFFFF000016
:10043E00000000000000000000000000E0FCFFFFD4
:10044E001F030000FFFFFF0000000000000000007F
:10045E000000FEFFFF01000000000000FFFFFF0094
:10046E000000000000000000000000010101010179
:10047E0001010101FFFFFF01010101010000000068
:10048E00000000FFFFFF070707070707070707071B
:10049E000707070000000000000000FFFFFF0E0E20
:1004AE000E0E0E0E0E0E0E0F0703000000000000C3
:1004BE00000000070707707070707070707070F831
:1004CE00F89F0F0000000000000000387870E0E098
:1004DE00E0E0E0E0E0E070783F1F0F000000000079
:1004EE00000000C0F0F83C1E0E07070707070707BD
:1004FE000E0E0000000000000000F0FFFF0F0707C7
:10050E000707070707070F0FFEFCF00000000000AB
:10051E0000000FFFFFF07070707070707070F0F868
:10052E00DF8F070000000000000000030F1F3C706B
:10053E0070E0E0E0E0E070783F1F0F000000000088
:10054E0000000007070707070707070707C7F7FF9A
:10055E007F1F0700000000000000000000000000E8
:10056E000000C0F8FF7F0F01000000000000000037
:10057E0000000000000000E0FEFF3F07000000004A
:10058E0000000000000000000000000000E0FFFF7F
:10059E003F0300000000000000000000000000000B
:1005AE0000000078FCFE8E070707070707078EFE80
:1005BE00FC780000000000000000E0F1FB1F0F0EB1
:1005CE000E0E0E0E0E0F1FFBF1E0000000000000DD
:1005DE000000078FDFF8F0707070707070F0F8DF49
:1005EE008F070000000000000000001E3F7F71E03A
:1005FE00E0E0E0E0E0E0717F3F1E00000000000060
:10060E00000000F0F8FC1E0E0707070707070E1E76
:10061E00FCF8F000000000000000071F3F7970702A
:10062E00E0E0E0E0E07070F8FFFF1F000000000067
:10063E00000000000000000000000101010181E740
:10064E00FFFFFC0000000000000000000070707052
:10065E00E0E0E0E0E0E071793F1F070000000000FD
:10066E00000000000000000000E0E0E0E0000000FC
:10067E00000000000000000000000000000000006C
:10068E000003030303000000000000000000000050
:10069E00000000000000000000C0C0C0C00000004C
:1006AE00000000000000000000000000000000003C
:1006BE000007070707000000000000000000000010
:1006CE00000000000000000000000000000000001C
:1006DE00000000000000000000000000000000000C
:1006EE0000000000000000000000000000000000FC
:1006FE0000000000000000000000000000000000EC
:10070E0000000000000000000000000000000000DB
:10071E0000E0E0E0E000000000000000000000004B
:1021BC00EFC39430400CEFD394395006C3EF9430F6
:1021CC00FF22EF24D3600D14600A14600A24F5700A
:0D21DC00097F0A227F0B227F0C227F0D223B
:1017CB00041600000000011500011A00C10BC10A2C
:0217DB00C10C3F
:0424540043B00F2260
:1023130020B0037F012220B1037F022220B2037F7A
:0B232300032220B3037F04227F00226E
:101ED100122313EF65157042E51AC39403500305ED
:101EE1001A22EF602D200B0FD20BC20AF5167517BF
:101EF10001E4F518F519220519E51970020518C351
:101F01009496E51894004017E5176402601175175F
:101F11000222300B0AC20BD20C228F15E4F51A22D1
:10211F00E4FFE517B4020C200A09E5164410FFD2BC
:10212F000A800FE517B4010A300C07200A04AF1616
:10213F00D20A300A10300C0DE4F516F517F518F524
:06214F0019C20CC20A22B5
:10234800C283AF041224098B90D284122358C2840A
:07235800E4FF0FBF0AFC22A5
:0D240900EF7005D280C28122C280D28122F4
:05244500C280C28122EB
:0621E900AC05AB07AF04DA
:1021EF00E4FE7590FFC282D283122409D284122397
:1021FF0058AD90C2841223580EEED394C85004EDFC
:06220F0020E7E90224456E
:0B242F001221E9C2821223480224455A
:0B243A001221E9D2821223480224453F
:101F7000C285E4FFFE0FBF00010EBE13F8BF88F557
:101F8000D285E4FEFF0FBF00010EBE27F8BF10F59B
:101F9000E4FD7F3F12242F7D017F3F12242FE4FDBB
:101FA0007FC012242F7D017FC012242FE4FEFF0F7B
:0D1FB000BF00010EBE03F8BFE8F50222B32A
:10215500AA05EAC394405004E4F98006790174C0E5
:102165002AFAEFD3940740027F07EAD3943F40024F
:102175007A3FEF44B8FFAD0112242FEA4440FFAD8A
:042185000102242F00
:1022B300E4F539E4F53AE4FBAD3AAF3912232E05E0
:1022C3003AE53AC3948040EE0539E539C3940840B2
:0222D300E22205
:10223F008D498B4A8F4CE54CD39549501B854A4DA0
:10224F00E54DD3954B500DE4FBAD4DAF4C12232E06
:09225F00054D80EC054C80DE22E7
:10232E008D4E8B4F122155E54EC394405004E4FD63
:0A233E0080027D01AF4F12243A2205
:1017DD00011300010F00010E00010C0002110000A9
:0217ED00C190A9
:102290000510E510C3943C4019E4F5100514E5144D
:1022A000943C400EE4F514050DE50D94184003E44C
:0322B000F50D2207
:03000B0002204D83
:10204D00C0E0C0F0C083C082C0D075D000C000C059
:10205D0001C002C003C004C005C006C007758CB81E
:10206D00758A001223BC1222F5121ED11222D5053B
:10207D000CD007D006D005D004D003D002D001D0AB
:0C208D0000D0D0D082D083D0F0D0E03260
:0D241600BF0409751301E4F50F1210002238
:101DC4008F33E533B4040E050FE50FD3940240407E
:101DD400E4F50F803BE53364017046E50F70197537
:101DE40013027889E6F50908E6F50A08E6F5080815
:101DF400E6F50BE4F50E8018E50FB4011675130330
:101E0400788DE6F50D08E6F51408E6F510E4F50E10
:101E1400021000E50FB40209751304121FBD120865
:021E240000229A
:100C24008F33E533B41102800CE533B4011DE50EB6
:100C3400C394074012AB0BAD08AF0AAE091223ED03
:100C4400E4F513F50EE194050EE194E533640260D6
:100C540002A1E4E50E703EE50B75F00A84F534E577
:100C64000B75F00A8485F0350535E535D3940940D4
:100C740003E4F535E53475F00AA42535F50BAD0824
:100C8400AF0AAE09122189E50BD39F504AE50B60E8
:100C940002A1E28042E50E64017041E50B75F00AA1
:100CA4008485F035E50B75F00A84F5340534E534B4
:100CB400D394034003E4F534E53475F00AA42535F0
:100CC400F50BAD08AF0AAE09122189E50BD39F508D
:100CD40006E50B6002A1E2750B01A1E2E50E6402D8
:100CE4007046E50875F00A84F536E50875F00A845F
:100CF40085F0370537E537D394094003E4F537E544
:100D04003675F00AA42537F508D3940C5004E50889
:100D14007003750801AD08AF0AAE09122189E50B0D
:100D2400D39F5002A1E2A1D7E50E64037044E50805
:100D340075F00A8485F037E50875F00A84F5360500
:100D440036E536D394014003E4F536E53675F00A0A
:100D5400A42537F508D3940C5004E50870037508EE
:100D640001AD08AF0AAE09122189E50BD39F406E8D
:100D74008061E50EC394044065E50ED39407505E8C
:100D8400753800753901E4F537E50E24FCFFE537C5
:100D9400C39F5013AE38AF397C007D0A1214098EFC
:100DA400388F39053780E2E539250AF50AE5383503
:100DB40009F509D3E50A9433E50994084006750951
:100DC40007750AD0AD08AF0AAE09122189E50BD325
:100DD4009F400BAD08AF0AAE091221898F0BE19435
:100DE400E53364036002E179E50E703DE50B75F0CF
:100DF4000A84F534E50B75F00A8485F035E5357021
:100E04000575350980021535E53475F00AA42535D4
:100E1400F50BAD08AF0AAE09122189E50BD39F503B
:100E240047E50B6002E177E16CE50E6401703BE598
:100E34000B75F00A8485F035E50B75F00A84F534FA
:100E4400700575340380021534E53475F00AA42561
:100E540035F50BAD08AF0AAE09122189E50BD39F16
:100E64005006E50B6002E177E16CE50E6402704523
:100E7400E50875F00A84F536E50875F00A8485F00E
:100E840037E537700575370980021537E53675F093
:100E94000AA42537F508D3940C5004E508700375AB
:100EA400080CAD08AF0AAE09122189E50BD39F5097
:100EB40002E177E16CE50E64037041E50875F00A20
:100EC4008485F037E50875F00A84F53670057536C3
:100ED4000180021536E53675F00AA42537F508D3E6
:100EE400940C5004E508700375080CAD08AF0AAE05
:100EF40009122189E50BD39F4079806CE50EC394D8
:100F0400044070E50ED394075069753800753901B3
:100F1400E4F537E50E24FCFFE537C39F5013AE38E4
:100F2400AF397C007D0A1214098E388F3905378059
:100F3400E2E53924D0FFE5383407FEC3E50A9FE52E
:100F4400099E5008750908750A33800DC3E50A9592
:100F540039F50AE5099538F509AD08AF0AAE091265
:100F64002189E50BD39F400BAD08AF0AAE091221CE
:100F7400898F0B801BE533B40419E4F513F50E785F
:100F840089E6F50908E6F50A08E6F50808E6F50B2A
:040F94001210002215
:101596008F33E533B41102800CE533B4011BE50E3D
:1015A600C394054010AB10AD14AF0D1223FBE4F548
:1015B60013F50EE19D050EE19DE53364026002C15F
:1015C600BDE50ED39401501DE4F5100514E514C3D2
:1015D600943C5002C1BBE4F514050DE50D9418507A
:1015E60002C1BBC1B8E50E64027033E51475F00A9A
:1015F60084F534E51475F00A8485F0350535E5354E
:10160600D394094003E4F535E53475F00AA425358D
:10161600F514C3943C5002C1BBE4F514C1BBE50EFE
:10162600B40329E51475F00A8485F035E51475F0E0
:101636000A84F5340534E534D394054003E4F534DF
:10164600E53475F00AA42535F5148069E50E6404C1
:10165600702EE50D75F00A84F534E50D75F00A84F3
:1016660085F0350535E535D394094003E4F535E5D0
:101676003475F00AA42535F50DC394184037803229
:10168600E50E6405702FE50D75F00A8485F035E5E5
:101696000D75F00A84F5340534E534D3940240031D
:1016A600E4F534E53475F00AA42535F50DC3941830
:1016B6004003E4F50DE19DE53364036002E186E550
:1016C6000ED394015005E4F510E184E50EB4021E34
:1016D600E51475F00A84F534E51475F00A8485F08E
:1016E60035E535700575350980231535801FE50EFE
:1016F600B40326E51475F00A8485F035E51475F013
:101706000A84F534700575340580021534E53475A0
:10171600F00AA42535F5148065E50E6404702DE500
:101726000D75F00A84F534E50D75F00A8485F035FB
:10173600E535700575350980021535E53475F00A0D
:10174600A42535F50DC394184034802FE50E6405A5
:10175600702CE50D75F00A8485F035E50D75F00AF7
:1017660084F534700575340280021534E53475F05D
:101776000AA42535F50DC394184003750D17801777
:10178600E533B40415E4F513F50E788DE6F50D088A
:0B179600E6F51408E6F5101210002222
:102000008F33E533B41108122385121FBD801DE5FF
:1020100033B401107856E6B4010512244F80031240
:10202000244A8008E533B40206121E26020800E5A1
:1020300033B4030A751305E47851F6021800E5334A
:0D204000B40409E4F513121FBD12100022B4
:101F21008F33E5336402702A7851067850E6240332
:101F3100FFE433FEEF7802CEC313CE13D8F9F534A4
:101F410070037534017851E6C395344002E4F6021A
:101F51001800E533B40309751304121FBD0208000C
:0F1F6100E533B40409E4F513121FBD121000227A
:1019D000121F70E4FFFE0FBF00010EBE27F8BF10FC
:1019E000F51224541223721223CDC2A01210001239
:1019F000235F12211F8F32E51364017036E53260D8
:101A000009E4F511F512D210803030102D0512E5E1
:101A10001270020511AE11FFE4FCFD7B507AC3F990
:101A2000F8D312153E5013C210E4F50FF51312103F
:101A3000008007D210E4F511F512E51314605A1472
:101A4000605024FE603E14604224027053E532640C
:101A500001702AE50E6003B40105750E028019E5D8
:101A60000EC394054010AB10AD14AF0D1223FBE470
:101A7000F513F50E8002050E1210008028AF321209
:101A800015968021AF32122000801AAF32121F212A
:101A90008013AF32120C24800CAF32121DC48005AB
:101AA000AF32122416300E21C20EE513B403051214
:101AB0002290800DE513600964016005E513B4020E
:101AC0000512100080001220E0E51364046002217A
:101AD000F2E50CC39402500221F2E4F50C12080066
:021AE00021F2F1
:0D17EF0005520000000000015000015100F3
:10237200785212157D00000000E47856F67850F687
:0323820008F62238
:1022F5007856E6B401177852121565EF2401FFE40C
:0E2305003EFEE43DFDE43CFC785212157122D0
:05244A00785676012226
:05244F00785676022220
:10238500785212157D00000000E47856F67850F674
:0323950008F62225
:101E26007850E6C394055052753D00753E00753FE7
:101E3600357540007541007542367543007544009E
:101E46007545377B007A00793412072E7850E6FF05
:101E560025E025E02457F8A634EF25E025E02458B0
:101E6600F8A635EF25E025E02459F8A636EF25E05B
:0B1E760025E0245AF8A6377850062219
:10072E008B3A8A3B893C78521215658F498E488DDB
:10073E00478C46E47B0AFAF9F81214ACE47B0AFA09
:10074E00F9F81214ACAF03AB43AA44A945EF121348
:10075E00F7AF49AE48AD47AC46E47B64FAF9F81200
:10076E0014AC8F498E488D478C46E47B3CFAF9F8E1
:10077E001214ACAF03AB40AA41A942EF1213F7AF6C
:10078E0049AE48AD47AC46E47B3CFAF9F81214ACDE
:10079E008F498E488D478C46E47B3CFAF9F812144B
:1007AE00ACAF03AB3DAA3EA93FEF1213F7AF49AE74
:1007BE0048AD47AC46E47B3CFAF9F81214AC8F49CD
:1007CE008E488D478C46E47F63FEFDFCAB49AA48FC
:1007DE00A947A846D3121554400AE4754963F54853
:0F07EE00F547F546AB3AAA3BA93CE5490213F79C
:03000000021BC61A
:0C1BC600787FE4F6D8FD758190021C0DBC
:10130100E709F608DFFA8046E709F208DFFA803ECE
:1013110088828C83E709F0A3DFFA8032E309F608BB
:10132100DFFA8078E309F208DFFA807088828C8323
:10133100E309F0A3DFFA806489828A83E0A3F608D7
:10134100DFFA805889828A83E0A3F208DFFA804CB1
:1013510080D280FA80C680D4806980F28033801088
:1013610080A680EA809A80A880DA80E280CA8033F1
:1013710089828A83ECFAE493A3C8C582C8CCC58369
:10138100CCF0A3C8C582C8CCC583CCDFE9DEE78039
:101391000D89828A83E493A3F608DFF9ECFAA9F0B8
:1013A100EDFB2289828A83ECFAE0A3C8C582C8CC0E
:1013B100C583CCF0A3C8C582C8CCC583CCDFEADE27
:1013C100E880DB89828A83E493A3F208DFF980CC89
:1013D10088F0EF60010E4E60C388F0ED2402B40482
:1013E1000050B9F582EB2402B4040050AF23234529
:0613F100822390135173EA
:1013F700BB010689828A83F0225002F722BBFE01D5
:02140700F322CE
:10140900EF8DF0A4A8F0CF8CF0A428CE8DF0A42EF7
:02141900FE22B1
:10141B00BC000BBE0029EF8DF084FFADF022E4CCB5
:10142B00F875F008EF2FFFEE33FEEC33FCEE9DEC7E
:10143B00984005FCEE9DFE0FD5F0E9E4CEFD22EDC4
:10144B00F8F5F0EE8420D21CFEADF075F008EF2F0E
:10145B00FFED33FD4007985006D5F0F222C398FDFF
:05146B000FD5F0EA229C
:1014700075F008758200EF2FFFEE33FECD33CDCC33
:1014800033CCC58233C5829BED9AEC99E5829840B6
:101490000CF582EE9BFEED9AFDEC99FC0FD5F0D693
:1014A000E4CEFBE4CDFAE4CCF9A88222B800C1B9BD
:1014B0000059BA002DEC8BF084CFCECDFCE5F0CBFB
:1014C000F97818EF2FFFEE33FEED33FDEC33FCEB34
:1014D00033FB10D703994004EB99FB0FD8E5E4F9EF
:1014E000FA227818EF2FFFEE33FEED33FDEC33FCDC
:1014F000C933C910D7059BE99A4007EC9BFCE99AD0
:10150000F90FD8E0E4C9FAE4CCFB2275F010EF2F14
:10151000FFEE33FEED33FDCC33CCC833C810D70714
:101520009BEC9AE899400AED9BFDEC9AFCE899F84F
:0E1530000FD5F0DAE4CDFBE4CCFAE4C8F922E2
:10153E00EB9FF5F0EA9E42F0E99D42F0EC6480C824
:06154E0064809845F022C4
:10155400EB9FF5F0EA9E42F0E99D42F0E89C45F0ED
:011564002264
:0C156500E6FC08E6FD08E6FE08E6FF22B2
:0C157100ECF608EDF608EEF608EFF622A6
:10157D00D083D082E493F608740193F60874029335
:09158D00F608740393F67404736C
:101BD2000219D0E493A3F8E493A34003F68001F240
:101BE20008DFF48029E493A3F85407240CC8C33314
:101BF200C4540F4420C8834004F456800146F6DFE3
:101C0200E4800B01020408102040809017A1E47EBA
:101C1200019360BCA3FF543F30E509541FFEE493D7
:101C2200A360010ECF54C025E060A840B8E493A39E
:101C3200FAE493A3F8E493A3C8C582C8CAC583CAC9
:101C4200F0A3C8C582C8CAC583CADFE9DEE780BE81
:0117FC0000EC
:00000001FF
