:051A3600C10D011B00C1
:1020E200EF600ED2A0D20D543FFFE51B54C04FF556
:0220F2001B22AF
:10211700C2A0C20DE4F51BE51B543F44C0F51B22CA
:10200000300D1CE51B543FFF7002800F1FEF543F43
:10201000FEE51B54C04EF51BEF7004C2A0C20D229A
:101F10007889E6FC08E6FDC394D0EC9407401AD318
:101F2000ED9433EC9408501108E6FEC39401400987
:0A1F3000EED3940C50031220E222BD
:050003007F0A021F103E
:0517F8007F32021F100A
:101D9C00788FE6543FFFE51BC4131354036F602E7A
:101DAC00EF543FC4333354C0FEE51B543F4EF51B78
:101DBC0018E6FBB43B0FEFC394374009EFD3943BC9
:0F1DCC005003020003EB7006EF70031217F822AA
:0C216D001F1C1F1E1F1E1F1F1E1F1E1FF9
:0C1A3B00088907E90B0E112A0000C10EFB
:1020A9005389F0438901758CB8E4F58AD2A9D2AF76
:0320B900D28C22A4
:10210600789006E6C394644007E4F6121D0ED20EDC
:0121160022A6
:101F6300AB07AA06EB5403700AFC7D64120F78EDED
:101F73004C700FAE02AF037C017D90120F78ED4CD5
:081F830070037F01227F0022A0
:101E84008E3A8F3B8D3C783D7C007D007BFF7A2130
:101E9400796D7E007F0C120F2EE53CB4020DAF3B32
:101EA400AE3A121F63EF60037F1D22743C253CF899
:031EB400E6FF2224
:101D0E00788F06E6C3943C403DE4F61806E6943C14
:101D1E004034E4F61806E69418402BE4F6180678DC
:101D2E0089E6FE08E6FF08E6FD121E84788CE6D3EF
:101D3E009F401376011806E6D3940C4009760118DD
:071D4E0006E61870010622F1
:0E2137007889A60608A60708A60508A60322B2
:0E214500788DA60708A60508A603E408F62272
:101AED002424A4FE232200C03800FF00081060004B
:101AFD00080601FF01068180404027100C030000FD
:101B0D0000042424242424FF242424242404000059
:101B1D0021211109FD834123050911292541410089
:101B2D00FF7F3F1F0F070301FFFEFCF8F0E0C080B1
:101A4700017EFFC10F017CFF0177FF016DFF017868
:091A5700FF0374FFFFFF017DFF96
:101971008F448D458B46E4F547E546C43354E02456
:10198100EDF582E4341AF583E5822547F582E435E5
:1019910083F583E493FBE5452547FDAF44122078A9
:1019A100E546C43354E024FDF582E4341AF583E5B9
:1019B100822547F582E43583F583E493FBE544040E
:1019C100FFE5452547FD1220780547E547C39410FB
:0319D10040A7220A
:1018FD00EF7003FF8009BF01047F0380027F068F15
:10190D0044C374809464FFE49400C313EF13FFD3B6
:10191D00940A4006EF24F6FF80027F008F463009BF
:10192D0031E4F545E5462545FDE545901B3593FB31
:10193D00AF44122078E54404FFE5462545FDE54515
:10194D00901B2D93FB1220780545E545C394084067
:10195D00D322E54404FDE5462407F54AAB46AF44E2
:04196D00121F3A22E9
:061881009209AD43E4FFF3
:101887008F448D45AF03121EB78F47E4F54675F0B9
:1018970010E547A4240EF582E5F03400F583E582D0
:1018A7002546F582E43583F583E493F548E5452538
:1018B70046FDAB48AF4412207875F010E547A424E5
:1018C70016F582E5F03400F583E5822546F582E4D6
:1018D7003583F583E493F548300903434880E544AD
:1018E70004FFE5452546FDAB481220780546E54649
:0618F700C3940840992291
:0B1800002430FBA2089209AD43AF4268
:10180B008F448D45AF03121EB78F47E4F54675F035
:10181B0020E547A424EEF582E5F03400F583E5825C
:10182B002546F582E43583F583E493F548E54525B4
:10183B0046FDAB48AF4412207875F020E547A42451
:10184B00FEF582E5F03400F583E5822546F582E46A
:10185B003583F583E493F548300903434880E54429
:10186B0004FFE5452546FDAB481220780546E546C5
:06187B00C3941040992205
:0D20F400FDE675F00A84E5F02430FBE4FF02
:05210100C2090218876D
:0B212700740C2543F5437B3AFDAF42EA
:05213200C20902180BB8
:101DDB008F3A8D3BE47888F67888E6FFC3940850F9
:101DEB002DE53B2FFDE4FBAF3A122078E53A04FFDB
:101DFB007888E6FE253BFDEE64036004EEB4040434
:0F1E0B007B1880027B0012207878880680CA221C
:1015D9008F378D388B39E53925E025E02456F8E633
:1015E90075F00A842430FBAF37122101E53925E073
:1015F90025E02456F8E675F00A84E5F02430FBE589
:10160900382408FDAF37122101E5382410FD7B3A53
:10161900AF37122101E53925E025E02457F8E675B1
:10162900F00A842430FBE5382418FDAF3712210174
:10163900E53925E025E02457F8E675F00A84E5F058
:101649002430FBE5382420FDAF37122101E5382489
:1016590028FD7B3AAF37122101E53925E025E02441
:1016690058F8E675F00A842430FBE5382430FDAFDC
:1016790037122101E53925E025E02458F8E675F00F
:101689000A84E5F02430FBE5382438FDAF37122110
:1016990001E5382440FDAF37121DDBE53925E0258A
:1016A900E02459F8E62430FBE5382448FDAF370239
:0216B90021010D
:1020200074742FF876FF74792FF876FF746E2FF89A
:0F20300076FF746A2FF876FF74712FF876FF220F
:101F8B00787C76FF787776FF786D76FF787876FFBA
:101F9B00E47888F67888E6FFC39403500812202073
:061FAB0078880680EF2299
:101C760074742FF8E66D7040ED25E025E02456F9E2
:101C860074792FF8E6677030ED25E025E02457F9E2
:101C9600746E2FF8E6677020ED25E025E02458F9EC
:101CA600746A2FF8E6677010ED25E025E02459F9EF
:0C1CB60074712FF8E6676002D322C3228D
:101D550074742FF8A605ED25E025E02456F8E6FE77
:101D650074792FF8A606ED25E025E02457F8E6FE60
:101D7500746E2FF8A606ED25E025E02458F8E6FE5A
:101D8500746A2FF8A606ED25E025E02459F8E6FE4D
:071D950074712FF8A606226D
:100B7400787EE66003D38001C39203E4787EF63086
:100B8400030A754A7FFB7D07FF121F3AE513B4027F
:100B940003D38001C39200E513B40303D38001C3DC
:100BA4009201E513B40103D38001C392023000150E
:100BB40085093A850A3B85083C850B3DC374079536
:100BC4000EF53E80117889E6F53A08E6F53B08E62D
:100BD400F53C08E6F53D30010B850D3F8514408555
:100BE4001041800D788DE6F53F08E6F54008E6F5FE
:100BF40041300108E50EB40503D38001C3920430EB
:100C04000108E50EB40403D38001C3920530010842
:100C1400E50EB40303D38001C39206300108E50E48
:100C2400B40203D38001C3920730010AE50E6003C6
:100C3400B40103D38001C39208754318AE3AAF3BA5
:100C44007C037DE8120F78EF2430FB300007E53E8B
:100C54007003D38001C312188174082543F543AE91
:100C64003AAF3B7C007D64120F787C007D0A120F42
:100C740078ED2430FB300008E53EB40103D3800155
:100C8400C312188174082543F543AE3AAF3B7C0088
:100C94007D0A120F787C007D0A120F78ED2430FB58
:100CA400300008E53EB40203D38001C312188174F6
:100CB400082543F543AE3AAF3B7C007D0A120F781A
:100CC400ED2430FB300008E53EB40303D38001C3B8
:100CD40012188174082543F5437B2DFDE4FF12218E
:100CE4000174082543F543E53C75F00A842430FB80
:100CF400300008E53EB40403D38001C312188174A4
:100D0400082543F543E53C75F00A84E5F02430FBFF
:100D1400300008E53EB40503D38001C31218817482
:100D2400082543F5437B2DFDE4FF122101740825BA
:100D340043F543E53D75F00A842430FB300008E5B3
:100D44003EB40603D38001C312188174082543F509
:100D540043E53D75F00A84E5F02430FB300008E5F6
:100D64003EB40703D38001C3121881754203C374D0
:100D7400809464FFE49400C313EF13F543E53F75D7
:100D8400F00A842430FBA204121805740C2543F5E0
:100D940043E53F75F00A84E5F02430FBA205121800
:100DA40005122127740C2543F543E54075F00A84A8
:100DB4002430FBA206121805740C2543F543E540C4
:100DC40075F00A84E5F02430FBA2071218051221FD
:100DD40027740C2543F543E54175F00A8412180085
:100DE400740C2543F543E54175F00A84E5F01218C7
:100DF40000E4FB7D307F061219717B017D407F0684
:100E0400121971787DE6FFF46010EFB50F0320022C
:100E140009C2091218FD787D76FF30023C301007B4
:100E2400E50F7003D38001C39209E4FF1218FD306B
:100E34001008E50FB40103D38001C392097F0112A6
:100E440018FD301008E50FB40203D38001C39209E2
:0A0E54007F021218FD787DA60F2220
:051FF600C20F021F8B69
:10130700300F07787EE664026003D38001C3920042
:10131700300010754A7FE4FB7D07FF121F3A121F4A
:101327008BD20F787E7602753B00753C00753D8049
:10133700753E00753F007540817541007542007527
:1013470043827B007A00797F12072E7883761020FC
:101357000008797CE7787F66601E7883E6FD787FF2
:10136700E675F00A841220FC7883E62408787F1259
:1013770020F4787FE6787CF67883E62410FD7B3AC4
:10138700E4FF1221012000087977E7788066602062
:101397007883E62418FD7880E675F00A841220FC2D
:1013A7007883E6242078801220F47880E67877F630
:1013B7007883E62428FD7B3AE4FF12210120000808
:1013C700796DE778816660217883E62430FD78813E
:1013D700E675F00A841220FC7883E62438FD7881CC
:1013E7001220F57881E6786DF67883E62440FDE4EF
:1013F700FF121DDB2000087978E778826660117894
:1014070083E62448FD18E61220FC7882E67878F611
:10141700E47884F67884E6FFC39403400281F4E617
:10142700FE25E0240208F6784FE6FDEEC39D400254
:1014370081CDED14C39F7886F60408F620000F7857
:1014470084E6FF7886E6FD121C76400281EFE4F51C
:10145700357536207885E6FF04FD754A7FE4FB1273
:101467001F3A7885E6FF7B4CAD35122101740825BC
:1014770035F5357885E6FF7887E6FEC3940A400B95
:10148700EE75F00A842430FEFB80027B20AD351216
:10149700210174082535F5357885E6FF7887E675E7
:1014A700F00A84E5F02430FBAD351221017885E69A
:1014B700FF08E6FBAD361215D97884E6FF7886E695
:1014C700FD121D55802220000A7884E62474F8E670
:1014D700F460157885E6FF04FD754A7FE4FB121F6B
:0E14E7003A7884E6FF122020788406811B22CA
:1016BB00787EE664026003121FD4787E760278503F
:1016CB00E625E025E07881F6E4787FF6787FE6FF83
:1016DB0025E07882F618E6FD2FFFE433FE784FE61F
:1016EB00FBC3EF9B7480F86E98505CED787F2608F7
:1016FB00F6047883F618E6FF04FD754A7FE4FB12C7
:10170B001F3A7882E6FF08E6FEC3940A400BEE759B
:10171B00F00A842430FEFB80027B20E4FD122101C1
:10172B007882E6FF08E675F00A84E5F02430FB7D4D
:10173B0008122101788476207882E6FF7880E6FB18
:10174B007D201215D9800E7882E6FF04FD754A7F45
:10175B00E4FB121F3A787F06E6C394045002C1D70C
:01176B00225B
:10000E0000E010080810E000000F102020100F0074
:10001E00001010F8000000000020203F20200000FB
:10002E000070080808887000003028242221300053
:10003E0000300888884830000018202020110E005B
:10004E000000C02010F8000000070424243F240004
:10005E0000F80888880808000019212020110E00D9
:10006E0000E0108888180000000F112020110E00EB
:10007E0000380808C83808000000003F00000000E3
:10008E000070880808887000001C222121221C00A4
:10009E0000E010080810E0000000312222110F00CD
:1000AE00000000C0C0000000000000303000000062
:1000BE00000000000000000000010101010101002C
:1000CE0000000000806018040060180601000000A7
:1000DE000000000000000000000000000000000012
:1000EE000000F0F80C04040CF8F000000000000012
:1000FE0000000F1F302020301F0F000000000000F6
:10010E000000001010FCFC000000000000000000C9
:10011E0000000020203F3F202000000000000000D3
:10012E000000181C0404040CF8F00000000000008D
:10013E00000030382C262321203000000000000063
:10014E000000181C848484CC783800000000000065
:10015E0000001838202020311F0E00000000000083
:10016E0000000080C06030FCFC00000000000000B9
:10017E00000007050404043F3F04040000000000D3
:10018E000000FCFC848484840C0C00000000000041
:10019E0000001838202020311F0E00000000000043
:1001AE000000F0F84C4444CC881800000000000019
:1001BE0000000F1F302020301F0F00000000000035
:1001CE0000000C0C040484E47C1C00000000000001
:1001DE0000000000003E3F01000000000000000093
:1001EE00000078FC84040484FC7800000000000009
:1001FE0000001E3F212020213F1E000000000000B5
:10020E000000F0F80C04040CF8F0000000000000F0
:10021E0000001833222222321F0F000000000000BF
:10022E000000000000606000000000000000000000
:10023E000000000000303000000000000000000050
:10024E0000000000000000000000000000000000A0
:10025E000000020202020202020200000000000080
:10026E00000000000080E0781E0600000000000084
:10027E000000303C0F0300000000000000000000F2
:10028E000000000000000000000000000000000060
:10029E000000000000000000000000000000000050
:1002AE00000000C0F0F83C0E060707070707060E11
:1002BE003CF8F0C0000000000000F0FFFF0F00004F
:1002CE000000000000000000000FFFFFF000000023
:1002DE0000000FFFFFF00000000000000000000013
:1002EE0000F0FFFF0F000000000000030F1F3C7026
:1002FE0060E0E0E0E0E060703C1F0F0300000000F3
:10030E000000000000000000000000FCFCFC0000EB
:10031E0000000000000000000000000000000000CF
:10032E00000000FFFFFF00000000000000000000C2
:10033E000000000000000000000000FFFFFF0000B2
:10034E00000000000000000000000000000000009F
:10035E00000000FFFFFF0000000000000000000092
:10036E000000001C1E0E07070707070707070E1ED3
:10037E00FCF8F0000000000000000000000000008B
:10038E0000000080E0F8FE7F1F0701000000000063
:10039E000000C0F0FCFE7F1F0F07030100000000ED
:1003AE0000000000000000000000E0E0E0E0E0E0FF
:1003BE00E0E0E0E0E0E0E0E0E0E0E0E000000000AF
:1003CE000000001C1E0E07070707070707070E1E73
:1003DE00FCF8F0000000000000000000000000002B
:1003EE000E0E0E0E0E0E0F1FFBF1E00000000000B1
:1003FE000000000000000000707070707070F0F867
:10040E00DF8F070000000000000000387870E0E089
:10041E00E0E0E0E0E0E070783F1F0F000000000039
:10042E000000000000000000C0F0FCFEFFFF000016
:10043E00000000000000000000000000E0FCFFFFD4
:10044E001F030000FFFFFF0000000000000000007F
:10045E000000FEFFFF01000000000000FFFFFF0094
:10046E000000000000000000000000010101010179
:10047E0001010101FFFFFF01010101010000000068
:10048E00000000FFFFFF070707070707070707071B
:10049E000707070000000000000000FFFFFF0E0E20
:1004AE000E0E0E0E0E0E0E0F0703000000000000C3
:1004BE00000000070707707070707070707070F831
:1004CE00F89F0F0000000000000000387870E0E098
:1004DE00E0E0E0E0E0E070783F1F0F000000000079
:1004EE00000000C0F0F83C1E0E07070707070707BD
:1004FE000E0E0000000000000000F0FFFF0F0707C7
:10050E000707070707070F0FFEFCF00000000000AB
:10051E0000000FFFFFF07070707070707070F0F868
:10052E00DF8F070000000000000000030F1F3C706B
:10053E0070E0E0E0E0E070783F1F0F000000000088
:10054E0000000007070707070707070707C7F7FF9A
:10055E007F1F0700000000000000000000000000E8
:10056E000000C0F8FF7F0F01000000000000000037
:10057E0000000000000000E0FEFF3F07000000004A
:10058E0000000000000000000000000000E0FFFF7F
:10059E003F0300000000000000000000000000000B
:1005AE0000000078FCFE8E070707070707078EFE80
:1005BE00FC780000000000000000E0F1FB1F0F0EB1
:1005CE000E0E0E0E0E0F1FFBF1E0000000000000DD
:1005DE000000078FDFF8F0707070707070F0F8DF49
:1005EE008F070000000000000000001E3F7F71E03A
:1005FE00E0E0E0E0E0E0717F3F1E00000000000060
:10060E00000000F0F8FC1E0E0707070707070E1E76
:10061E00FCF8F000000000000000071F3F7970702A
:10062E00E0E0E0E0E07070F8FFFF1F000000000067
:10063E00000000000000000000000101010181E740
:10064E00FFFFFC0000000000000000000070707052
:10065E00E0E0E0E0E0E071793F1F070000000000FD
:10066E00000000000000000000E0E0E0E0000000FC
:10067E00000000000000000000000000000000006C
:10068E000003030303000000000000000000000050
:10069E00000000000000000000C0C0C0C00000004C
:1006AE00000000000000000000000000000000003C
:1006BE000007070707000000000000000000000010
:1006CE00000000000000000000000000000000001C
:1006DE00000000000000000000000000000000000C
:1006EE0000000000000000000000000000000000FC
:1006FE0000000000000000000000000000000000EC
:10070E0000000000000000000000000000000000DB
:10071E0000E0E0E0E000000000000000000000004B
:101EB700EFC39430400CEFD394395006C3EF9430FE
:101EC700FF22EF24D3600D14600A14600A24F57012
:0D1ED700097F0A227F0B227F0C227F0D2243
:101A6000041600000000011500011A00C10BC10A94
:021A7000C10CA7
:0421990043B00F221E
:10205D0020B0037F012220B1037F022220B2037F33
:0B206D00032220B3037F04227F002227
:101B3D0012205DEF65157042E51AC394035003053D
:101B4D001A22EF602D200B0FD20BC20AF516751756
:101B5D0001E4F518F519220519E51970020518C3E8
:101B6D009496E51894004017E517640260117517F7
:101B7D000222300B0AC20BD20C228F15E4F51A2269
:101E1A00E4FFE517B4020C200A09E5164410FFD2C4
:101E2A000A800FE517B4010A300C07200A04AF161E
:101E3A00D20A300A10300C0DE4F516F517F518F52C
:061E4A0019C20CC20A22BD
:10209200C283AF041221538B90D2841220A2C28435
:0720A200E4FF0FBF0AFC225E
:0D215300EF7005D280C28122C280D28122AD
:051FFB00C280C281223A
:061EE400AC05AB07AF04E2
:101EEA00E4FE7590FFC282D283122153D28412205B
:101EFA00A2AD90C2841220A20EEED394C85004ED73
:061F0A0020E7E9021FFBC5
:0B217900121EE4C282122092021FFB23
:0B218400121EE4D282122092021FFB08
:101BDC00C285E4FFFE0FBF00010EBE13F8BF88F5EF
:101BEC00D285E4FEFF0FBF00010EBE27F8BF10F533
:101BFC00E4FD7F3F1221797D017F3F122179E4FDC5
:101C0C007FC01221797D017FC0122179E4FEFF0F84
:0D1C1C00BF00010EBE03F8BFE8F5021FD4A3
:101E5000AA05EAC394405004E4F98006790174C0ED
:101E60002AFAEFD3940740027F07EAD3943F400257
:101E70007A3FEF44B8FFAD01122179EA4440FFAD4B
:041E800001022179C1
:101FD400E4F535E4F536E4FBAD36AF35122078058B
:101FE40036E536C3948040EE0535E535C3940840A4
:021FF400E222E7
:101F3A008D488B498F4BE54BD39548501B85494CAF
:101F4A00E54CD3954A500DE4FBAD4CAF4B122078CB
:091F5A00054C80EC054B80DE22F1
:102078008D4D8B4E121E50E54DC394405004E4FD27
:0A20880080027D01AF4E1221842278
:101A7200011300010F00010E00010C000211000011
:021A8200C19011
:101FB1000510E510C3943C4019E4F5100514E5142F
:101FC100943C400EE4F514050DE50D94184003E42E
:031FD100F50D22E9
:03000B00021CC212
:101CC200C0E0C0F0C083C082C0D075D000C000C0E8
:101CD20001C002C003C004C005C006C007758CB8AD
:101CE200758A0012210612203F121B3D12200005A8
:101CF2000CD007D006D005D004D003D002D001D03A
:0C1D020000D0D0D082D083D0F0D0E032EE
:0D216000BF0409751301E4F50F120B742282
:1019D4008F33E533B4040E050FE50FD39402404072
:1019E400E4F50F803BE53364017046E50F7019752B
:1019F40013027889E6F50908E6F50A08E6F5080809
:101A0400E6F50BE4F50E8018E50FB4011675130323
:101A1400788DE6F50D08E6F51408E6F510E4F50E04
:101A2400020B74E50FB40209751304121FF61213A6
:021A3400072287
:100800008F33E533B41102800CE533B4011DE50EDE
:10081000C394074012AB0BAD08AF0AAE09122137E3
:10082000E4F513F50E6170050E6170E53364026046
:100830000221C0E50E703EE50B75F00A84F534E543
:100840000B75F00A8485F0350535E535D3940940FC
:1008500003E4F535E53475F00AA42535F50BAD084C
:10086000AF0AAE09121E84E50BD39F504AE50B6018
:100870000221BE8042E50E64017041E50B75F00A6D
:100880008485F035E50B75F00A84F5340534E534DC
:10089000D394034003E4F534E53475F00AA4253518
:1008A000F50BAD08AF0AAE09121E84E50BD39F50BD
:1008B00006E50B600221BE750B0121BEE50E640248
:1008C0007046E50875F00A84F536E50875F00A8487
:1008D00085F0370537E537D394094003E4F537E56C
:1008E0003675F00AA42537F508D3940C5004E508B2
:1008F0007003750801AD08AF0AAE09121E84E50B3E
:10090000D39F500221BE21B3E50E64037044E50875
:1009100075F00A8485F037E50875F00A84F5360528
:1009200036E536D394014003E4F536E53675F00A32
:10093000A42537F508D3940C5004E5087003750816
:1009400001AD08AF0AAE09121E84E50BD39F406EBD
:100950008061E50EC394044065E50ED39407505EB4
:10096000753800753901E4F537E50E24FCFFE537ED
:10097000C39F5013AE38AF397C007D0A120F668ECC
:10098000388F39053780E2E539250AF50AE538352B
:1009900009F509D3E50A9433E50994084006750979
:1009A00007750AD0AD08AF0AAE09121E84E50BD355
:1009B0009F400BAD08AF0AAE09121E848F0B617009
:1009C000E533640360026155E50E703DE50B75F09B
:1009D0000A84F534E50B75F00A8485F035E5357049
:1009E0000575350980021535E53475F00AA42535FD
:1009F000F50BAD08AF0AAE09121E84E50BD39F506C
:100A000047E50B600261536148E50E6401703BE508
:100A10000B75F00A8485F035E50B75F00A84F53422
:100A2000700575340380021534E53475F00AA42589
:100A300035F50BAD08AF0AAE09121E84E50BD39F46
:100A40005006E50B600261536148E50E6402704593
:100A5000E50875F00A84F536E50875F00A8485F036
:100A600037E537700575370980021537E53675F0BB
:100A70000AA42537F508D3940C5004E508700375D3
:100A8000080CAD08AF0AAE09121E84E50BD39F50C7
:100A90000261536148E50E64037041E50875F00A90
:100AA0008485F037E50875F00A84F53670057536EB
:100AB0000180021536E53675F00AA42537F508D30E
:100AC000940C5004E508700375080CAD08AF0AAE2D
:100AD00009121E84E50BD39F4079806CE50EC39408
:100AE000044070E50ED394075069753800753901DC
:100AF000E4F537E50E24FCFFE537C39F5013AE380D
:100B0000AF397C007D0A120F668E388F3905378029
:100B1000E2E53924D0FFE5383407FEC3E50A9FE556
:100B2000099E5008750908750A33800DC3E50A95BA
:100B300039F50AE5099538F509AD08AF0AAE09128D
:100B40001E84E50BD39F400BAD08AF0AAE09121E01
:100B5000848F0B801BE533B40419E4F513F50E788C
:100B600089E6F50908E6F50A08E6F50808E6F50B52
:040B7000120B7422CE
:1010F3008F33E533B4110BAB10AD14AF0D12214593
:1011030041FEE53364017027E50E6003B401057504
:101113000E026103E50EC394054010AB10AD14AF8E
:101123000D122145E4F513F50E6103050E6103E588
:1011330033640260024130E50ED39401501DE4F59F
:10114300100514E514C3943C5002412EE4F5140534
:101153000DE50D94185002412E412BE50E640270EB
:1011630033E51475F00A84F534E51475F00A8485C3
:10117300F0350535E535D394094003E4F535E53419
:1011830075F00AA42535F514C3943C5002412EE4AE
:10119300F514412EE50EB40329E51475F00A848590
:1011A300F035E51475F00A84F5340534E534D39449
:1011B300054003E4F534E53475F00AA42535F51448
:1011C3008069E50E6404702EE50D75F00A84F5342C
:1011D300E50D75F00A8485F0350535E535D39409B9
:1011E3004003E4F535E53475F00AA42535F50DC360
:1011F300941840378032E50E6405702FE50D75F0C5
:101203000A8485F035E50D75F00A84F5340534E577
:1012130034D394024003E4F534E53475F00AA4258D
:1012230035F50DC394184003E4F50D6103E533640C
:1012330003600241F9E50ED394015005E4F5104132
:10124300F7E50EB4021EE51475F00A84F534E514CF
:1012530075F00A8485F035E5357005753509802309
:101263001535801FE50EB40326E51475F00A848551
:10127300F035E51475F00A84F5347005753405808E
:10128300021534E53475F00AA42535F5148065E5B7
:101293000E6404702DE50D75F00A84F534E50D75C3
:1012A300F00A8485F035E53570057535098002153A
:1012B30035E53475F00AA42535F50DC3941840348B
:1012C300802FE50E6405702CE50D75F00A8485F01A
:1012D30035E50D75F00A84F5347005753402800226
:1012E3001534E53475F00AA42535F50DC39418407B
:1012F30003750D17800AE533B40408E4F513F50EFE
:04130300120B742233
:101C29008F33E533B411081220CF121FF6801DE55A
:101C390033B401107855E6B40105122194800312DA
:101C4900218F8008E533B40206121A92021307E5C0
:101C590033B4030A751305E47850F60216BBE5336D
:0D1C6900B40409E4F513121FF6120B7422E7
:101B8D008F33E5336402702A785006784FE62403CC
:101B9D00FFE433FEEF7802CEC313CE13D8F9F5343C
:101BAD0070037534017850E6C395344002E4F602B3
:101BBD0016BBE533B40309751304121FF6021307A0
:0F1BCD00E533B40409E4F513121FF6120B74226A
:1014F500121BDCE4FFFE0FBF00010EBE27F8BF1074
:10150500F51221991220BC122117C2A0120B7412D8
:1015150020A9121E1A8F32E51364017036E5326078
:1015250009E4F511F512D210803030102D0512E5C1
:101535001270020511AE11FFE4FCFD7B507AC3F970
:10154500F8D312109B5013C210E4F50FF513120BCC
:10155500748007D210E4F511F512E51314602A140E
:10156500602024FE600E14601224027023AF321234
:1015750010F38021AF32121C29801AAF32121B8D55
:101585008013AF32120800800CAF321219D48005D7
:10159500AF32122160300E23C20E121D9CE513B42A
:1015A5000303121FB1E513600F6401600BE51364BB
:1015B500026005E513B40303120B74E513640460BC
:1015C50002A117E50CC394025002A117E4F50C1211
:0415D5001307A11740
:0D1A840005510000000000014F000150005E
:1020BC0078511210DA00000000E47855F6784FF6EB
:0320CC0008F622F1
:10203F007855E6B4011778511210C2EF2401FFE46E
:0E204F003EFEE43DFDE43CFC78511210CE2232
:05218F007855760122E5
:052194007855760222DF
:1020CF0078511210DA00000000E47855F6784FF6D8
:0320DF0008F622DE
:101A9200784FE6C394055052753B00753C00753D86
:101AA20035753E00753F0075403675410075420040
:101AB2007543377B007A00793412072E784FE6FFA0
:101AC20025E025E02456F8A634EF25E025E024574A
:101AD200F8A635EF25E025E02458F8A636EF25E0F4
:0B1AE20025E02459F8A637784F0622B3
:10072E008B388A39893A78511210C28F478E468D8E
:10073E00458C44E47B0AFAF9F8121009E47B0AFAB4
:10074E00F9F8121009AF03AB41AA42A943EF120FF9
:10075E0054AF47AE46AD45AC44E47B64FAF9F812AB
:10076E0010098F478E468D458C44E47B3CFAF9F890
:10077E00121009AF03AB3EAA3FA940EF120F54AFC0
:10078E0047AE46AD45AC44E47B3CFAF9F81210098D
:10079E008F478E468D458C44E47B3CFAF9F8121057
:1007AE0009AF03AB3BAA3CA93DEF120F54AF47AEC6
:1007BE0046AD45AC44E47B3CFAF9F81210098F477C
:1007CE008E468D458C44E47F63FEFDFCAB47AA4606
:1007DE00A945A844D31210B1400AE4754763F54603
:0F07EE00F545F544AB38AA39A93AE547020F544F
:0300000002176C78
:0C176C00787FE4F6D8FD7581900217B379
:100E5E00E709F608DFFA8046E709F208DFFA803E76
:100E6E0088828C83E709F0A3DFFA8032E309F60863
:100E7E00DFFA8078E309F208DFFA807088828C83CB
:100E8E00E309F0A3DFFA806489828A83E0A3F6087F
:100E9E00DFFA805889828A83E0A3F208DFFA804C59
:100EAE0080D280FA80C680D4806980F28033801030
:100EBE0080A680EA809A80A880DA80E280CA803399
:100ECE0089828A83ECFAE493A3C8C582C8CCC58311
:100EDE00CCF0A3C8C582C8CCC583CCDFE9DEE780E1
:100EEE000D89828A83E493A3F608DFF9ECFAA9F060
:100EFE00EDFB2289828A83ECFAE0A3C8C582C8CCB6
:100F0E00C583CCF0A3C8C582C8CCC583CCDFEADECE
:100F1E00E880DB89828A83E493A3F208DFF980CC30
:100F2E0088F0EF60010E4E60C388F0ED2402B40429
:100F3E000050B9F582EB2402B4040050AF232345D0
:060F4E008223900EAE7339
:100F5400BB010689828A83F0225002F722BBFE017C
:020F6400F32276
:100F6600EF8DF0A4A8F0CF8CF0A428CE8DF0A42E9F
:020F7600FE2259
:100F7800BC000BBE0029EF8DF084FFADF022E4CC5D
:100F8800F875F008EF2FFFEE33FEEC33FCEE9DEC26
:100F9800984005FCEE9DFE0FD5F0E9E4CEFD22ED6C
:100FA800F8F5F0EE8420D21CFEADF075F008EF2FB6
:100FB800FFED33FD4007985006D5F0F222C398FDA7
:050FC8000FD5F0EA2244
:100FCD0075F008758200EF2FFFEE33FECD33CDCCDB
:100FDD0033CCC58233C5829BED9AEC99E58298405E
:100FED000CF582EE9BFEED9AFDEC99FC0FD5F0D63B
:100FFD00E4CEFBE4CDFAE4CCF9A88222B800C1B965
:10100D000059BA002DEC8BF084CFCECDFCE5F0CBA2
:10101D00F97818EF2FFFEE33FEED33FDEC33FCEBDB
:10102D0033FB10D703994004EB99FB0FD8E5E4F996
:10103D00FA227818EF2FFFEE33FEED33FDEC33FC83
:10104D00C933C910D7059BE99A4007EC9BFCE99A77
:10105D00F90FD8E0E4C9FAE4CCFB2275F010EF2FBC
:10106D00FFEE33FEED33FDCC33CCC833C810D707BC
:10107D009BEC9AE899400AED9BFDEC9AFCE899F8F7
:0E108D000FD5F0DAE4CDFBE4CCFAE4C8F9228A
:10109B00EB9FF5F0EA9E42F0E99D42F0EC6480C8CC
:0610AB0064809845F0226C
:1010B100EB9FF5F0EA9E42F0E99D42F0E89C45F095
:0110C100220C
:0C10C200E6FC08E6FD08E6FE08E6FF225A
:0C10CE00ECF608EDF608EEF608EFF6224E
:1010DA00D083D082E493F608740193F608740293DD
:0910EA00F608740393F674047314
:101778000214F5E493A3F8E493A34003F68001F27E
:1017880008DFF48029E493A3F85407240CC8C33372
:10179800C4540F4420C8834004F456800146F6DF41
:1017A800E4800B0102040810204080901A36E47E81
:1017B800019360BCA3FF543F30E509541FFEE49336
:1017C800A360010ECF54C025E060A840B8E493A3FD
:1017D800FAE493A3F8E493A3C8C582C8CAC583CA28
:1017E800F0A3C8C582C8CAC583CADFE9DEE780BEE0
:011A91000054
:00000001FF
