:05205B00C10D01700041
:10270B00EF600ED2A0D20D543FFFE57054C04FF5D1
:02271B0070222A
:10272E00C2A0C20DE4F570E570543F44C0F57022AE
:10260100300D1FE570543FFFD3940040111FEF546C
:102611003FFEE57054C04EF570EF70068000C2A019
:03262100C20D22C5
:10257D0078AAE6FE08E6FFC394D0EE9407401CD37C
:10258D00EF9433EE9408501308E6FFC39401400B0B
:0C259D00EFD3940C50057F0A12270B228C
:1025A90078AAE6FE08E6FFC394D0EE9407401CD350
:1025B900EF9433EE9408501308E6FFC39401400BDF
:0C25C900EFD3940C50057F3212270B2238
:1022DE0078B0E6543FFFE570C4131354036F602EBD
:1022EE00EF543FC4333354C0FEE570543F4EF57087
:1022FE0018E6FDB43B0FEFC394374009EFD3943B80
:0F230E00500302257DED7006EF70031225A92202
:0C2777001F1C1F1E1F1E1F1F1E1F1E1FE9
:0C20600008AA07E90B0E112A0000C10EAF
:1026D2005389F0438901758CB8E4F58AD2A9D2AF47
:0326E200D28C2275
:10271D0078B106E6C394644007E4F6122297D20E10
:01272D002289
:10252200AB07AA067C017D90121434ED4C70037F38
:1025320001227C007D64AF03AE02121434ED4C70B4
:0E25420002FF22EB540370037F01227F002270
:1023F8008E3A8F3B8D3C783D7C007D007BFF7A27B1
:1024080079777E007F0C1213D1E53CB4020DAF3B07
:10241800AE3A122522EF60037F1D22743C253CF85A
:03242800E6FF22AA
:1022970078B006E6C3943C403DE4F61806E6943C65
:1022A7004034E4F61806E69418402BE4F61806784E
:1022B700AAE6FE08E6FF08E6FD1223F878ADE6D3A6
:1022C7009F401376011806E6D3940C40097601184F
:0722D70006E6187001062263
:0E274E0078AAA60608A60708A60508A6032274
:0E275C0078AEA60708A60508A603E408F62234
:101FFB002424A4FE232200C03800FF000810600038
:10200B00080601FF01068180404027100C030000E9
:10201B0000042424242424FF242424242404000046
:10202B0021211109FD834123050911292541410076
:10203B00FF7F3F1F0F070301FFFEFCF8F0E0C0809E
:10204B000000000000000000000000181800000055
:10206C0001A0FFC10F019EFF0199FF018FFF019A93
:09207C00FF0396FFFFFF019FFF27
:101F36008F458D468B47E4F548E547C43354E02486
:101F4600FBF582E4341FF583E5822548F582E43506
:101F560083F583E493FBE5462548FDAF451226B895
:101F6600E547C43354E0240BF582E43420F583E5D9
:101F7600822548F582E43583F583E493FBE5450441
:101F8600FFE5462548FD1226B80548E548C39410E6
:031F960040A7223F
:101E5100EF7004F545800BBF0105754503800375DF
:101E61004506C374809464FFE49400C313EF13FF29
:101E7100D3940A4006EF24F6FF80027F008F46309C
:101E81000931E4F547E5462547FDE54790204393B1
:101E9100FBAF451226B8E54504FFE5462547FDE5BC
:101EA1004790203B93FB1226B80547E547C39408AA
:101EB10040D322E54504FDE5462407F54BAB46AF8B
:051EC1004512231D2263
:061DD5009209AD44E4FF99
:101DDB008F458D46AF031225508F48E4F54775F0BC
:101DEB0010E548A4240EF582E5F03400F583E58276
:101DFB002547F582E43583F583E493F549E54625DC
:101E0B0047FDAB49AF451226B875F010E548A42441
:101E1B0016F582E5F03400F583E5822547F582E47B
:101E2B003583F583E493F549300903434980E54550
:101E3B0004FFE5462547FDAB491226B80547E547A4
:061E4B00C3940840992237
:0B1CD3002430FBA2069209AD44AF4391
:101CDE008F458D46AF031225508F48E4F54775F0BA
:101CEE0020E548A424EEF582E5F03400F583E58284
:101CFE002547F582E43583F583E493F549E54625DA
:101D0E0047FDAB49AF451226B875F020E548A4242F
:101D1E00FEF582E5F03400F583E5822547F582E491
:101D2E003583F583E493F549300903434980E5454E
:101D3E0004FFE5462547FDAB491226B80547E547A2
:061D4E00C394104099222D
:0D1C5000FDE675F00A84E5F02430FBE4FFAA
:101C5D008F458D46AF031225508F48E4F54775F03B
:101C6D0010E548A4240EF582E5F03400F583E582F5
:101C7D002547F582E43583F583E493FBE546254757
:101C8D00FDAF451226B80547E547C3940840CFE49C
:101C9D00F54775F010E548A42416F582E5F03400FB
:101CAD00F583E5822547F582E43583F583E493FBDF
:101CBD00E54504FFE5462547FD1226B80547E547EE
:061CCD00C3940840CD2283
:0B1D5400740C2544F5447B3AFDAF43BE
:101D5F008F458D46AF031225508F48E4F54775F038
:101D6F0020E548A424EEF582E5F03400F583E58202
:101D7F002547F582E43583F583E493FBE546254754
:101D8F00FDAF451226B80547E547C3941040CFE491
:101D9F00F54775F020E548A424FEF582E5F0340000
:101DAF00F583E5822547F582E43583F583E493FBDC
:101DBF00E54504FFE5462547FD1226B80547E547EB
:061DCF00C3941040CD2278
:101AE0008F6C8D6DAF031225508F6FE4F56E75F01E
:101AF00060E56FA424AEF582E5F03402F583E5825B
:101B0000256EF582E43583F583E493FBE56D256E60
:101B1000FDAF6C1226B8056EE56EC3941840CFE495
:101B2000F56E75F060E56FA424C6F582E5F0340229
:101B3000F583E582256EF582E43583F583E493FB36
:101B4000E56C04FFE56D256EFD1226B8056EE56EA9
:101B5000C3941840CDE4F56E75F060E56FA424DE03
:101B6000F582E5F03402F583E582256EF582E435F1
:101B700083F583E493FBE56C2402FFE56D256EFDA0
:101B80001226B8056EE56EC3941840CCE4F56E7568
:101B9000F060E56FA424F6F582E5F03402F583E504
:101BA00082256EF582E43583F583E493FBE56C24AE
:101BB00003FFE56D256EFD1226B8056EE56EC39434
:041BC0001840CC22DB
:10248F008F5D8D5E8B5F8A608961AB5FAA60A9618A
:10249F001213F7FB601AAD5EAF5D121C5D74082559
:1024AF005EF55E74012561F561E43560F56080DAF3
:0124BF0022FA
:1024C0008F628D638B648A658966AB64AA65A96631
:1024D0001213F7FB601AAD63AF62121D5F74102513
:1024E00063F56374012566F566E43565F56580DAA4
:0124F00022C9
:1024F1008F678D688B698A6A896BAB69AA6AA96BD8
:102501001213F7FB601AAD68AF67121AE074182551
:1025110068F5687401256BF56BE4356AF56A80DA54
:012521002297
:101EC6008F158D168A178B18751B00751C01751AD0
:101ED60001E51AC395195013AE1BAF1C7C007D0A91
:101EE6001214228E1B8F1C051A80E6E4F51AE51AD9
:101EF600C39519503AAC1BAD1CAE17AF181214346B
:101F06007C007D0A1214348D1DE51A75F008A4258F
:101F160016FDE51D2430FBAF15121C5DAE1BAF1C74
:101F26007C007D0A1214348E1B8F1C051A80BF227A
:100F91008F4E8D4F8A508B51755400755501755385
:100FA10001E553C395525013AE54AF557C007D0AF1
:100FB1001214228E548F55055380E6E4F553E55300
:100FC100C395525039AC54AD55AE50AF5112143493
:100FD1007C007D0A1214348D56E553C454F0254F1C
:100FE100FDE5562430FBAF4E121D5FAE54AF557C6C
:0F0FF100007D0A1214348E548F55055380C02290
:1010000078A0E66003D38001C39208E478A0F630AC
:10101000080A754B7FFB7D07FF12231DE513B40201
:1010200003D38001C39200E513B40303D38001C34B
:101030009201E513B40103D38001C3920730001578
:1010400085093A850A3B85083C850B3DC3740795A5
:101050000EF53F801178AAE6F53A08E6F53B08E67A
:10106000F53C08E6F53D30010B850D4085144185C2
:101070001042800D78AEE6F54008E6F54108E6F549
:1010800042300108E50EB40503D38001C39202305B
:101090000108E50EB40403D38001C39203300108B4
:1010A000E50EB40303D38001C39204300108E50EBA
:1010B000B40203D38001C3920530010AE50E600338
:1010C000B40103D38001C39206754418AE3AAF3B16
:1010D0007C037DE8121434EF2430FB300007E53F39
:1010E0007003D38001C3121DD574082544F544AEA6
:1010F0003AAF3B7C007D641214347C007D0A1214EC
:1011000034ED2430FB300008E53FB40103D3800107
:10111000C3121DD574082544F544AE3AAF3B7C009C
:101120007D0A1214347C007D0A121434ED2430FB45
:10113000300008E53FB40203D38001C3121DD5740B
:10114000082544F544AE3AAF3B7C007D0A121434C6
:10115000ED2430FB300008E53FB40303D38001C326
:10116000121DD574082544F5447B2DFDE4FF121CA7
:101170005D74082544F544E53C75F00A842430FB91
:10118000300008E53FB40403D38001C3121DD574B9
:10119000082544F544E53C75F00A84E5F02430FB6D
:1011A000300008E53FB40503D38001C3121DD57498
:1011B000082544F5447B2DFDE4FF121C5D740825D1
:1011C00044F544E53D75F00A842430FB300008E521
:1011D0003FB40603D38001C3121DD574082544F51E
:1011E00044E53D75F00A84E5F02430FB300008E565
:1011F0003FB40703D38001C3121DD5754303C374E5
:10120000809464FFE49400C313EF13F544E5407544
:10121000F00A842430FBA202121CD8740C2544F579
:1012200044E54075F00A84E5F02430FBA203121C6B
:10123000D8121D54740C2544F544E54175F00A8418
:101240002430FBA204121CD8740C2544F544E5415B
:1012500075F00A84E5F02430FBA205121CD8121D9B
:1012600054740C2544F544E54275F00A84121CD3ED
:10127000740C2544F544E54275F00A84E5F0121C2F
:10128000D3E4FB7D307F06121F367B017D407F0655
:10129000121F3630075A789FE6FFF4600AEF650F99
:1012A0006005C209121E5130102CE50F7003D38067
:1012B00001C39209E4FF121E51E50FB40103D3806C
:1012C00001C392097F01121E51E50FB40203D380BE
:1012D00001C392098010C209E4FF121E51C2097FA6
:1012E00001121E51C2097F02121E51789FA60F22C1
:1012F000789FE6FFF46009C209121E51789F76FFBD
:0113000022CA
:1017BA00C20F789E76FF789976FF788F76FF789AAF
:1017CA0076FFE478A1F678A1E6FFC3940350237468
:1017DA00962FF876FF749B2FF876FF74902FF87681
:1017EA00FF748C2FF876FF74932FF876FF78A10692
:0317FA0080D42276
:10080000300F0778A0E664026003D38001C3920032
:1008100030004D754B7FE4FB7D07FF12231DD20F87
:10082000789E76FF789976FF788F76FF789A76FFB4
:10083000E478A6F678A6E6FFC39403502374962FB7
:10084000F876FF749B2FF876FF74902FF876FF747C
:100850008C2FF876FF74932FF876FF78A60680D455
:1008600078A07602753C00753D00753EA2753F008C
:100870007540007541A37542007543007544A47B23
:10088000007A0079A112072E78A576102000087949
:100890009EE778A166601E78A5E6FD78A1E675F072
:1008A0000A84121C5878A5E6240878A1121C5078F6
:1008B000A1E6789EF678A5E62410FD7B3AE4FF12C7
:1008C0001C5D2000087999E778A266602078A5E68B
:1008D0002418FD78A2E675F00A84121C5878A5E663
:1008E000242078A2121C5078A2E67899F678A5E622
:1008F0002428FD7B3AE4FF121C5D200008798FE775
:1009000078A366602178A5E62430FD78A3E675F02B
:100910000A84121C5878A5E62438FD78A3121C51CD
:1009200078A3E6788FF6E4F53578A5E624402535FA
:10093000FDE53590204B93FBE4FF1226B878A5E641
:1009400024402535FDE53590205393FB7F01122689
:10095000B80535E535C3940840CF200008799AE7FB
:1009600078A466601178A5E62448FD18E6121C58A4
:1009700078A4E6789AF6E478A6F678A6E6FFC3941B
:10098000034002811CE6FE25E0240208F67871E6A9
:10099000FDEEC39D400261DBED14C39F78A8F60411
:1009A00008F620005A78A6E6FF2496F978A8E6FE15
:1009B00067704CEE25E025E02478F9749B2FF8E66B
:1009C00067703C78A8E6FF25E025E02479F978A651
:1009D000E6FE2490F8E6677026EF25E025E0247A0D
:1009E000F9748C2EF8E667701678A8E625E025E005
:1009F000247BF978A6E62493F8E66770028117E471
:100A0000F53675372078A7E6FF04FD754B7FE4FBCC
:100A100012231D78A7E6FF7B4CAD36121C5D7408CF
:100A20002536F53678A7E6FF78A9E6FEC3940A4096
:100A30000BEE75F00A842430FEFB80027B20AD367D
:100A4000121C5D74082536F53678A7E6FF78A9E60E
:100A500075F00A84E5F02430FBAD36121C5D78A8F1
:100A6000E625E025E02478F8E675F00A842430FBDA
:100A700078A7E6FFAD37121C5D78A8E625E025E0F3
:100A80002478F8E675F00A84E5F02430FB78A7E6D0
:100A9000FFE5372408FD121C5D78A7E6FFE5372443
:100AA00010FD7B3A121C5D78A8E625E025E024794C
:100AB000F8E675F00A842430FB78A7E6FFE53724D2
:100AC00018FD121C5D78A8E625E025E02479F8E6FB
:100AD00075F00A84E5F02430FB78A7E6FFE53724BB
:100AE00020FD121C5D78A7E6FFE5372428FD7B3A40
:100AF000121C5D78A8E625E025E0247AF8E675F07A
:100B00000A842430FB78A7E6FFE5372430FD121C69
:100B10005D78A8E625E025E0247AF8E675F00A84F9
:100B2000E5F02430FB78A7E6FFE5372438FD121CFA
:100B30005DE4F53878A7E6FFE53724402538FDE485
:100B4000FB1226B878A7E604FFE53724402538FDD8
:100B5000E53864036005E538B404047B1880027B43
:100B6000001226B80538E538C3940840C778A8E6CF
:100B700025E025E0247BF8E62430FB78A7E6FFE5B6
:100B8000372448FD121C5D78A8E6FF78A6E6FE240F
:100B900096F8A607EF25E025E02478F8E6FF749B99
:100BA0002EF8A60778A8E6FF25E025E02479F8E6E8
:100BB000FD74902EF8A605EF25E025E0247AF8E6EE
:100BC000FF748C2EF8A60778A8E625E025E0247BA4
:100BD000F8E6FF74932EF8A607803C20000A78A65A
:100BE000E62496F8E6F4602F78A7E6FF04FD754B3F
:100BF0007FE4FB12231D78A6E6FF2496F876FF74A7
:100C00009B2FF876FF74902FF876FF748C2FF87670
:0D0C1000FF74932FF876FF78A606217A2254
:1018000078A0E66402600312242B78A07602787236
:10181000E625E025E078A3F6E478A1F678A1E6FFD6
:1018200025E078A4F618E6FD2FFFE433FE7871E694
:10183000FBC3EF9B7480F86E98400221B4ED78A151
:101840002608F60478A5F618E6FF04FD754B7FE43C
:10185000FB12231D78A4E6FF08E6FEC3940A400BA2
:10186000EE75F00A842430FEFB80027B20E4FD123A
:101870001C5D78A4E6FF08E675F00A84E5F02430E4
:10188000FB7D08121C5D75362078A2E625E025E078
:101890002478F8E675F00A842430FB78A4E6FFADDE
:1018A00036121C5D78A2E625E025E02478F8E6757E
:1018B000F00A84E5F02430FB78A4E6FFE53624083E
:1018C000FD121C5D78A4E6FFE5362410FD7B3A127C
:1018D0001C5D78A2E625E025E02479F8E675F00A9B
:1018E000842430FB78A4E6FFE5362418FD121C5D45
:1018F00078A2E625E025E02479F8E675F00A84E58B
:10190000F02430FB78A4E6FFE5362420FD121C5DB0
:1019100078A4E6FFE5362428FD7B3A121C5D78A208
:10192000E625E025E0247AF8E675F00A842430FB09
:1019300078A4E6FFE5362430FD121C5D78A2E6258A
:10194000E025E0247AF8E675F00A84E5F02430FB1F
:1019500078A4E6FFE5362438FD121C5DE4F53778FF
:10196000A4E6FFE53624402537FDE4FB1226B878CF
:10197000A4E604FFE53624402537FDE5376403601F
:1019800005E537B404047B1880027B001226B805F5
:1019900037E537C3940840C778A2E625E025E02460
:1019A0007BF8E62430FB78A4E6FFE5362448FD12F8
:1019B0001C5D800E78A4E6FF04FD754B7FE4FB12EE
:0E19C000231D78A106E6C394045002011C22E8
:10000E0000E010080810E000000F102020100F0074
:10001E00001010F8000000000020203F20200000FB
:10002E000070080808887000003028242221300053
:10003E0000300888884830000018202020110E005B
:10004E000000C02010F8000000070424243F240004
:10005E0000F80888880808000019212020110E00D9
:10006E0000E0108888180000000F112020110E00EB
:10007E0000380808C83808000000003F00000000E3
:10008E000070880808887000001C222121221C00A4
:10009E0000E010080810E0000000312222110F00CD
:1000AE00000000C0C0000000000000303000000062
:1000BE00000000000000000000010101010101002C
:1000CE0000000000806018040060180601000000A7
:1000DE000000000000000000000000000000000012
:1000EE000000F0F80C04040CF8F000000000000012
:1000FE0000000F1F302020301F0F000000000000F6
:10010E000000001010FCFC000000000000000000C9
:10011E0000000020203F3F202000000000000000D3
:10012E000000181C0404040CF8F00000000000008D
:10013E00000030382C262321203000000000000063
:10014E000000181C848484CC783800000000000065
:10015E0000001838202020311F0E00000000000083
:10016E0000000080C06030FCFC00000000000000B9
:10017E00000007050404043F3F04040000000000D3
:10018E000000FCFC848484840C0C00000000000041
:10019E0000001838202020311F0E00000000000043
:1001AE000000F0F84C4444CC881800000000000019
:1001BE0000000F1F302020301F0F00000000000035
:1001CE0000000C0C040484E47C1C00000000000001
:1001DE0000000000003E3F01000000000000000093
:1001EE00000078FC84040484FC7800000000000009
:1001FE0000001E3F212020213F1E000000000000B5
:10020E000000F0F80C04040CF8F0000000000000F0
:10021E0000001833222222321F0F000000000000BF
:10022E000000000000606000000000000000000000
:10023E000000000000303000000000000000000050
:10024E0000000000000000000000000000000000A0
:10025E000000020202020202020200000000000080
:10026E00000000000080E0781E0600000000000084
:10027E000000303C0F0300000000000000000000F2
:10028E000000000000000000000000000000000060
:10029E000000000000000000000000000000000050
:1002AE00000000C0F0F83C0E060707070707060E11
:1002BE003CF8F0C0000000000000F0FFFF0F00004F
:1002CE000000000000000000000FFFFFF000000023
:1002DE0000000FFFFFF00000000000000000000013
:1002EE0000F0FFFF0F000000000000030F1F3C7026
:1002FE0060E0E0E0E0E060703C1F0F0300000000F3
:10030E000000000000000000000000FCFCFC0000EB
:10031E0000000000000000000000000000000000CF
:10032E00000000FFFFFF00000000000000000000C2
:10033E000000000000000000000000FFFFFF0000B2
:10034E00000000000000000000000000000000009F
:10035E00000000FFFFFF0000000000000000000092
:10036E000000001C1E0E07070707070707070E1ED3
:10037E00FCF8F0000000000000000000000000008B
:10038E0000000080E0F8FE7F1F0701000000000063
:10039E000000C0F0FCFE7F1F0F07030100000000ED
:1003AE0000000000000000000000E0E0E0E0E0E0FF
:1003BE00E0E0E0E0E0E0E0E0E0E0E0E000000000AF
:1003CE000000001C1E0E07070707070707070E1E73
:1003DE00FCF8F0000000000000000000000000002B
:1003EE000E0E0E0E0E0E0F1FFBF1E00000000000B1
:1003FE000000000000000000707070707070F0F867
:10040E00DF8F070000000000000000387870E0E089
:10041E00E0E0E0E0E0E070783F1F0F000000000039
:10042E000000000000000000C0F0FCFEFFFF000016
:10043E00000000000000000000000000E0FCFFFFD4
:10044E001F030000FFFFFF0000000000000000007F
:10045E000000FEFFFF01000000000000FFFFFF0094
:10046E000000000000000000000000010101010179
:10047E0001010101FFFFFF01010101010000000068
:10048E00000000FFFFFF070707070707070707071B
:10049E000707070000000000000000FFFFFF0E0E20
:1004AE000E0E0E0E0E0E0E0F0703000000000000C3
:1004BE00000000070707707070707070707070F831
:1004CE00F89F0F0000000000000000387870E0E098
:1004DE00E0E0E0E0E0E070783F1F0F000000000079
:1004EE00000000C0F0F83C1E0E07070707070707BD
:1004FE000E0E0000000000000000F0FFFF0F0707C7
:10050E000707070707070F0FFEFCF00000000000AB
:10051E0000000FFFFFF07070707070707070F0F868
:10052E00DF8F070000000000000000030F1F3C706B
:10053E0070E0E0E0E0E070783F1F0F000000000088
:10054E0000000007070707070707070707C7F7FF9A
:10055E007F1F0700000000000000000000000000E8
:10056E000000C0F8FF7F0F01000000000000000037
:10057E0000000000000000E0FEFF3F07000000004A
:10058E0000000000000000000000000000E0FFFF7F
:10059E003F0300000000000000000000000000000B
:1005AE0000000078FCFE8E070707070707078EFE80
:1005BE00FC780000000000000000E0F1FB1F0F0EB1
:1005CE000E0E0E0E0E0F1FFBF1E0000000000000DD
:1005DE000000078FDFF8F0707070707070F0F8DF49
:1005EE008F070000000000000000001E3F7F71E03A
:1005FE00E0E0E0E0E0E0717F3F1E00000000000060
:10060E00000000F0F8FC1E0E0707070707070E1E76
:10061E00FCF8F000000000000000071F3F7970702A
:10062E00E0E0E0E0E07070F8FFFF1F000000000067
:10063E00000000000000000000000101010181E740
:10064E00FFFFFC0000000000000000000070707052
:10065E00E0E0E0E0E0E071793F1F070000000000FD
:10066E00000000000000000000E0E0E0E0000000FC
:10067E00000000000000000000000000000000006C
:10068E000003030303000000000000000000000050
:10069E00000000000000000000C0C0C0C00000004C
:1006AE00000000000000000000000000000000003C
:1006BE000007070707000000000000000000000010
:1006CE00000000000000000000000000000000001C
:1006DE00000000000000000000000000000000000C
:1006EE0000000000000000000000000000000000FC
:1006FE0000000000000000000000000000000000EC
:10070E0000000000000000000000000000000000DB
:10071E0000E0E0E0E000000000000000000000004B
:10255000EFC39430400CEFD394395006C3EF94305E
:10256000FF22BF3A037F0A22BF2D037F0B22BF2F1A
:0D257000037F0C22BF2E037F0B227F0D2264
:10208500045800000000015700015C00C10BC10AA3
:02209500C10C7C
:0427880043B00F2229
:10269D0020B0037F012220B1037F022220B2037FED
:0B26AD00032220B3037F04227F0022E1
:1021120012269DEF65577042E55CC3940350030598
:102122005C22EF602D200B0FD20BC20AF5587559B5
:1021320001E4F55AF55B22055BE55B7002055AC3C3
:102142009496E55A94004017E55964026011755956
:102152000222300B0AC20BD20C228F57E4F55C220A
:10238E00E4FFE559B4020C200A09E5584410FFD2C7
:10239E000A800FE559B4010A300C07200A04AF5821
:1023AE00D20A300A10300C0DE4F558F559F55AF5ED
:0623BE005BC20CC20A2202
:09273E008B90D284122747C2845B
:07274700E4FF0FBF0AFC22B2
:06235600AC05AB07AF046B
:10235C00E4FE7590FFC282D283EF7006D280C281F8
:10236C008004C280D281D284122747AD90C28412DD
:10237C0027470EEED394C85004ED20E7E9C280C283
:02238C008122AC
:10266500122356C282C283EC7006D280C2818004D6
:0C267500C280D28112273EC280C28122A6
:10268100122356D282C283EC7006D280C2818004AA
:0C269100C280D28112273EC280C281228A
:1025D500AC0712235C7590FFD282D283EC7006D2D1
:1025E50080C2818004C280D281D284122747AE90F6
:0C25F500C284122747C280C281AF0622B8
:1021B100C285E4FFFE0FBF00010EBE13F8BF88F514
:1021C100D285E4FEFF0FBF00010EBE27F8BF10F558
:1021D100E4FD7F3F1226657D017F3F122665E4FD08
:1021E1007FC01226657D017FC0122665E4FEFF0FC8
:0D21F100BF00010EBE03F8BFE8F502242B6D
:1023C400AA05EAC394405004E4F98006790174C074
:1023D4002AFAEFD3940740027F07EAD3943F4002DE
:1023E4007A3FEF44B8FFAD01122665EA4440FFADE1
:0423F4000102266557
:10242B00E4F538E4F539AD39AF381223C4E539C3D7
:10243B0094405004E4FD80037D01E4FF12268105E6
:10244B0039E539C3948040DE0538E538C39408403C
:02245B00D2228B
:10231D008D498B4A8F4CE54CD39549502B854A4DB1
:10232D00E54DD3954B501DAD4DAF4C1223C4E54D2E
:10233D00C394405004E4FD80037D01E4FF12268127
:09234D00054D80DC054C80CE2218
:1026B8008D4A8B4B1223C4E54AC394405004E4FD71
:0A26C80080027D01AF4B1226812233
:10245D00E4F51EE4F51FAD1FAF1E1223C4E51FC327
:10246D0094405004E4FD80027D017FFF122681051A
:10247D001FE51FC3948040DE051EE51EC394084072
:02248D00D22259
:10209700011300010F00010E00010C0002110000E6
:0220A700C190E6
:102624000510E510C3943C4019E4F5100514E514B5
:10263400943C400EE4F514050DE50D94184003E4B4
:03264400F50D226F
:03000B0002224B83
:10224B00C0E0C0F0C083C082C0D075D000C000C059
:10225B0001C002C003C004C005C006C007758CB81E
:10226B00758A0012271D122647122112122601050C
:10227B000CD007D006D005D004D003D002D001D0AB
:0C228B0000D0D0D082D083D0F0D0E03260
:0D276A00BF0409751301E4F50F12100022E1
:101F99008F33E533B4040E050FE50FD394024040A7
:101FA900E4F50F803BE53364017046E50F70197560
:101FB900130278AAE6F50908E6F50A08E6F508081D
:101FC900E6F50BE4F50E8018E50FB4011675130359
:101FD90078AEE6F50D08E6F51408E6F510E4F50E19
:101FE900021000E50FB402097513041217BA12089A
:021FF9000022C4
:100C1D008F33E533B41102800CE533B4011DE50EBD
:100C2D00C394074012AB0BAD08AF0AAE0912274EA5
:100C3D00E4F513F50EE18D050EE18DE533640260EB
:100C4D0002A1DDE50E703EE50B75F00A84F534E585
:100C5D000B75F00A8485F0350535E535D3940940DB
:100C6D0003E4F535E53475F00AA42535F50BAD082B
:100C7D00AF0AAE091223F8E50BD39F504AE50B607E
:100C8D0002A1DB8042E50E64017041E50B75F00AAF
:100C9D008485F035E50B75F00A84F5340534E534BB
:100CAD00D394034003E4F534E53475F00AA42535F7
:100CBD00F50BAD08AF0AAE091223F8E50BD39F5023
:100CCD0006E50B6002A1DB750B01A1DBE50E6402ED
:100CDD007046E50875F00A84F536E50875F00A8466
:100CED0085F0370537E537D394094003E4F537E54B
:100CFD003675F00AA42537F508D3940C5004E50891
:100D0D007003750801AD08AF0AAE091223F8E50BA3
:100D1D00D39F5002A1DBA1D0E50E64037044E5081A
:100D2D0075F00A8485F037E50875F00A84F5360507
:100D3D0036E536D394014003E4F536E53675F00A11
:100D4D00A42537F508D3940C5004E50870037508F5
:100D5D0001AD08AF0AAE091223F8E50BD39F406E23
:100D6D008061E50EC394044065E50ED39407505E93
:100D7D00753800753901E4F537E50E24FCFFE537CC
:100D8D00C39F5013AE38AF397C007D0A1214228EEA
:100D9D00388F39053780E2E539250AF50AE538350A
:100DAD0009F509D3E50A9433E50994084006750958
:100DBD0007750AD0AD08AF0AAE091223F8E50BD3BB
:100DCD009F400BAD08AF0AAE091223F88F0BE18DD2
:100DDD00E53364036002E172E50E703DE50B75F0DD
:100DED000A84F534E50B75F00A8485F035E5357028
:100DFD000575350980021535E53475F00AA42535DC
:100E0D00F50BAD08AF0AAE091223F8E50BD39F50D1
:100E1D0047E50B6002E170E165E50E6401703BE5AD
:100E2D000B75F00A8485F035E50B75F00A84F53401
:100E3D00700575340380021534E53475F00AA42568
:100E4D0035F50BAD08AF0AAE091223F8E50BD39FAC
:100E5D005006E50B6002E170E165E50E6402704538
:100E6D00E50875F00A84F536E50875F00A8485F015
:100E7D0037E537700575370980021537E53675F09A
:100E8D000AA42537F508D3940C5004E508700375B2
:100E9D00080CAD08AF0AAE091223F8E50BD39F502D
:100EAD0002E170E165E50E64037041E50875F00A35
:100EBD008485F037E50875F00A84F53670057536CA
:100ECD000180021536E53675F00AA42537F508D3ED
:100EDD00940C5004E508700375080CAD08AF0AAE0C
:100EED00091223F8E50BD39F4079806CE50EC3946E
:100EFD00044070E50ED394075069753800753901BB
:100F0D00E4F537E50E24FCFFE537C39F5013AE38EB
:100F1D00AF397C007D0A1214228E388F3905378047
:100F2D00E2E53924D0FFE5383407FEC3E50A9FE535
:100F3D00099E5008750908750A33800DC3E50A9599
:100F4D0039F50AE5099538F509AD08AF0AAE09126C
:100F5D0023F8E50BD39F400BAD08AF0AAE09122362
:100F6D00F88F0B801BE533B40419E4F513F50E78F7
:100F7D00AAE6F50908E6F50A08E6F50808E6F50B10
:040F8D00121000221C
:1015AF008F33E533B41102800CE533B4011BE50E24
:1015BF00C394054010AB10AD14AF0D12275CE4F5CA
:1015CF0013F50EE1B6050EE1B6E53364026002C114
:1015DF00D6E50ED39401501DE4F5100514E514C3A0
:1015EF00943C5002C1D4E4F514050DE50D94185048
:1015FF0002C1D4C1D1E50E64027033E51475F00A4F
:10160F0084F534E51475F00A8485F0350535E53534
:10161F00D394094003E4F535E53475F00AA4253574
:10162F00F514C3943C5002C1D4E4F514C1D4E50EB3
:10163F00B40329E51475F00A8485F035E51475F0C7
:10164F000A84F5340534E534D394054003E4F534C6
:10165F00E53475F00AA42535F5148069E50E6404A8
:10166F00702EE50D75F00A84F534E50D75F00A84DA
:10167F0085F0350535E535D394094003E4F535E5B7
:10168F003475F00AA42535F50DC394184037803210
:10169F00E50E6405702FE50D75F00A8485F035E5CC
:1016AF000D75F00A84F5340534E534D39402400304
:1016BF00E4F534E53475F00AA42535F50DC3941817
:1016CF004003E4F50DE1B6E53364036002E19FE505
:1016DF000ED394015005E4F510E19DE50EB4021E02
:1016EF00E51475F00A84F534E51475F00A8485F075
:1016FF0035E535700575350980231535801FE50EE5
:10170F00B40326E51475F00A8485F035E51475F0F9
:10171F000A84F534700575340580021534E5347587
:10172F00F00AA42535F5148065E50E6404702DE5E7
:10173F000D75F00A84F534E50D75F00A8485F035E2
:10174F00E535700575350980021535E53475F00AF4
:10175F00A42535F50DC394184034802FE50E64058C
:10176F00702CE50D75F00A8485F035E50D75F00ADE
:10177F0084F534700575340280021534E53475F044
:10178F000AA42535F50DC394184003750D1780175E
:10179F00E533B40415E4F513F50E78AEE6F50D0850
:0B17AF00E6F51408E6F5101210002209
:1021FE008F33E533B411081226F81217BA801DE595
:10220E0033B401107877E6B40105122783800312E8
:10221E0000038008E533B402061220B7020800E579
:10222E0033B4030A751305E47872F6021800E53329
:0D223E00B40409E4F5131217BA12100022BF
:102162008F33E5336402702A7872067871E62403AD
:10217200FFE433FEEF7802CEC313CE13D8F9F53461
:1021820070037534017872E6C395344002E4F602B6
:102192001800E533B403097513041217BA020800D4
:0F21A200E533B40409E4F5131217BA1210002242
:1019CE001221B1E4FFFE0FBF00010EBE27F8BF10BB
:1019DE00F51227881226E512272EC2A01210001229
:1019EE0026D212238E8F32E51364017036E53260F3
:1019FE0009E4F511F512D210803030102D0512E5E4
:101A0E001270020511AE11FFE4FCFD7B507AC3F992
:101A1E00F8D31215575013C210E4F50FF513121028
:101A2E00008007D210E4F511F512E51314605A1474
:101A3E00605024FE603E14604224027053E532640E
:101A4E0001702AE50E6003B40105750E028019E5DA
:101A5E000EC394054010AB10AD14AF0D12275CE40D
:101A6E00F513F50E8002050E1210008028AF32120B
:101A7E0015AF8021AF321221FE801AAF32122162D1
:101A8E008013AF32120C1D800CAF32121F998005DD
:101A9E00AF3212276A300E21C20EE513B4030512BF
:101AAE002624800DE513600964016005E513B40278
:101ABE000512100080001222DEE51364046002217C
:101ACE00F0E50CC39402500221F0E4F50C1208006C
:021ADE0021F0F5
:0D20A90005730000000000017100017200CD
:1026E500787312159600000000E47877F67871F695
:0326F50008F622C2
:102647007877E6B40117787312157EEF2401FFE45B
:0E2657003EFEE43DFDE43CFC787312158A2241
:05000300787776012270
:052783007877760222C8
:1026F800787312159600000000E47877F67871F682
:0327080008F622AE
:1020B7007871E6C394055052753C00753D00753E36
:1020C70035753F0075400075413675420075430010
:1020D7007544377B007A00793412072E7871E6FF52
:1020E70025E025E02478F8A634EF25E025E02479DB
:1020F700F8A635EF25E025E0247AF8A636EF25E0A7
:0B21070025E0247BF8A6377871062243
:10072E008B398A3A893B787312157E8F488E478DA6
:10073E00468C45E47B0AFAF9F81214C5E47B0AFAF2
:10074E00F9F81214C5AF03AB42AA43A944EF121431
:10075E0010AF48AE47AD46AC45E47B64FAF9F812EB
:10076E0014C58F488E478D468C45E47B3CFAF9F8CC
:10077E001214C5AF03AB3FAA40A941EF121410AF3C
:10078E0048AE47AD46AC45E47B3CFAF9F81214C5C9
:10079E008F488E478D468C45E47B3CFAF9F812144F
:1007AE00C5AF03AB3CAA3DA93EEF121410AF48AE45
:1007BE0047AD46AC45E47B3CFAF9F81214C58F48B8
:1007CE008E478D468C45E47F63FEFDFCAB48AA4701
:1007DE00A946A845D312156D400AE4754863F5473E
:0F07EE00F546F545AB39AA3AA93BE54802141088
:03000000021BC41C
:0C1BC400787FE4F6D8FD7581B1021C0B9F
:10130100E709F608DFFA8046E709F208DFFA803ECE
:1013110088828C83E709F0A3DFFA8032E309F608BB
:10132100DFFA8078E309F208DFFA807088828C8323
:10133100E309F0A3DFFA806489828A83E0A3F608D7
:10134100DFFA805889828A83E0A3F208DFFA804CB1
:1013510080D280FA80C680D4806980F28033801088
:1013610080A680EA809A80A880DA80E280CA8033F1
:1013710089828A83ECFAE493A3C8C582C8CCC58369
:10138100CCF0A3C8C582C8CCC583CCDFE9DEE78039
:101391000D89828A83E493A3F608DFF9ECFAA9F0B8
:1013A100EDFB2289828A83ECFAE0A3C8C582C8CC0E
:1013B100C583CCF0A3C8C582C8CCC583CCDFEADE27
:1013C100E880DB89828A83E493A3F208DFF980CC89
:1013D10088F0EF60010E4E60C388F0ED2402B40482
:1013E1000050B9F582EB2402B4040050AF23234529
:0613F100822390135173EA
:1013F700BB010689828A83E0225002E722BBFE02F4
:09140700E32289828A83E4932226
:10141000BB010689828A83F0225002F722BBFE01BB
:02142000F322B5
:10142200EF8DF0A4A8F0CF8CF0A428CE8DF0A42EDE
:02143200FE2298
:10143400BC000BBE0029EF8DF084FFADF022E4CC9C
:10144400F875F008EF2FFFEE33FEEC33FCEE9DEC65
:10145400984005FCEE9DFE0FD5F0E9E4CEFD22EDAB
:10146400F8F5F0EE8420D21CFEADF075F008EF2FF5
:10147400FFED33FD4007985006D5F0F222C398FDE6
:051484000FD5F0EA2283
:1014890075F008758200EF2FFFEE33FECD33CDCC1A
:1014990033CCC58233C5829BED9AEC99E58298409D
:1014A9000CF582EE9BFEED9AFDEC99FC0FD5F0D67A
:1014B900E4CEFBE4CDFAE4CCF9A88222B800C1B9A4
:1014C9000059BA002DEC8BF084CFCECDFCE5F0CBE2
:1014D900F97818EF2FFFEE33FEED33FDEC33FCEB1B
:1014E90033FB10D703994004EB99FB0FD8E5E4F9D6
:1014F900FA227818EF2FFFEE33FEED33FDEC33FCC3
:10150900C933C910D7059BE99A4007EC9BFCE99AB6
:10151900F90FD8E0E4C9FAE4CCFB2275F010EF2FFB
:10152900FFEE33FEED33FDCC33CCC833C810D707FB
:101539009BEC9AE899400AED9BFDEC9AFCE899F836
:0E1549000FD5F0DAE4CDFBE4CCFAE4C8F922C9
:10155700EB9FF5F0EA9E42F0E99D42F0EC6480C80B
:0615670064809845F022AB
:10156D00EB9FF5F0EA9E42F0E99D42F0E89C45F0D4
:01157D00224B
:0C157E00E6FC08E6FD08E6FE08E6FF2299
:0C158A00ECF608EDF608EEF608EFF6228D
:10159600D083D082E493F608740193F6087402931C
:0915A600F608740393F674047353
:101BD0000219CEE493A3F8E493A34003F68001F244
:101BE00008DFF48029E493A3F85407240CC8C33316
:101BF000C4540F4420C8834004F456800146F6DFE5
:101C0000E4800B010204081020408090205BE47EF9
:101C1000019360BCA3FF543F30E509541FFEE493D9
:101C2000A360010ECF54C025E060A840B8E493A3A0
:101C3000FAE493A3F8E493A3C8C582C8CAC583CACB
:101C4000F0A3C8C582C8CAC583CADFE9DEE780BE83
:0120B6000029
:00000001FF
