:0A1A3D00C10E011B00C10D011CFFCA
:1021B300EF600ED2A0D20E543FFFE51B54C04FF583
:0221C3001B22DD
:1021D700C2A0C20EE4F51BE51B543F44C0F51B2209
:1020B700300E1CE51B543FFF7002800F1FEF543F8B
:1020C700FEE51B54C04EF51BEF7004C2A0C20E22E2
:101F9C007895E6FC08E6FDC394D0EC9407401AD380
:101FAC00ED9433EC9408501108E6FEC394014009FB
:0A1FBC00EED3940C50031221B3225F
:08000300C2A0C20E531BC02273
:10204E00789AE6B43B1318E62401FFE433FE7C00D5
:10205E007D18120FA8AB0580047899E6FBD20D8B84
:04206E001C0200034D
:052255007F0A021F9C3E
:05225A007F32021F9C11
:101AFE00789BE6FF543FFEE51BC4131354036E6040
:101B0E004DEE543FC4333354C0FDE51B543F4DF5E9
:101B1E001B300D1BE51CB4FF04C20D80127899E634
:101B2E00651C702AEFD394004024C20D751CFF78FB
:101B3E009AE6FBB43B0FEEC394374009EED3943BC9
:0F1B4E005003022255EB7006EE700312225A224A
:0C222D001F1C1F1E1F1E1F1F1E1F1E1F38
:0C1A4700089507E90B0E113B0000C10FD1
:10217A005389F0438901758CB8E4F58AD2A9D2AFA4
:03218A00D28C22D2
:101FEF00789C06E6C394644007E4F6121DD9D20F1D
:011FFF0022BF
:10200000AB07AA06EB5403700AFC7D64120FA8ED1F
:102010004C700FAE02AF037C017D90120FA8ED4C07
:0820200070037F01227F002202
:101F10008E3A8F3B8D3C783D7C007D007BFF7A22A2
:101F2000792D7E007F0C120F5EE53CB4020DAF3BB5
:101F3000AE3A122000EF60037F1D22743C253CF86E
:031F4000E6FF2297
:101DD900789B06E6C3943C403DE4F61806E6943C3D
:101DE9004034E4F61806E69418402BE4F618067811
:101DF90095E6FE08E6FF08E6FD121F107898E6D37F
:101E09009F401376011806E6D3940C400976011811
:071E190006E6187001062225
:0E21F7007895A60608A60708A60508A60322E6
:0E2205007899A60708A60508A603E408F622A5
:101BB8002424A4FE232200C03800FF00081060007F
:101BC800080601FF01068180404027100C03000031
:101BD80000042424242424FF24242424240400008E
:101BE80021211109FD8341230509112925414100BE
:101BF800FF7F3F1F0F070301FFFEFCF8F0E0C080E6
:101A5300018AFFC1100188FF0183FF0179FF01841F
:091A6300FF0380FFFFFF0189FF72
:1019DA008F448D458B46E4F547E546C43354E024ED
:1019EA00B8F582E4341BF583E5822547F582E435B0
:1019FA0083F583E493FBE5452547FDAF4412212F88
:101A0A00E546C43354E024C8F582E4341BF583E583
:101A1A00822547F582E43583F583E493FBE54404A4
:101A2A00FFE5452547FD12212F0547E547C39410D9
:031A3A0040A722A0
:10196600EF7003FF8009BF01047F0380027F068FAB
:1019760044C374809464FFE49400C313EF13FFD34D
:10198600940A4006EF24F6FF80027F008F46300956
:1019960031E4F545E5462545FDE545901C0093FBFC
:1019A600AF4412212FE54404FFE5462545FDE545F4
:1019B600901BF893FB12212F0545E545C39408407B
:1019C600D322E54404FDE5462407F54AAB46AF4479
:0419D600121FC622F4
:0618EA009209AD43E4FF8A
:1018F0008F448D45AF03121F438F47E4F54675F0C3
:1019000010E547A4240EF582E5F03400F583E58266
:101910002546F582E43583F583E493F548E54525CE
:1019200046FDAB48AF4412212F75F010E547A424C3
:1019300016F582E5F03400F583E5822546F582E46C
:101940003583F583E493F548300903434880E54443
:1019500004FFE5452546FDAB4812212F0546E54627
:06196000C3940840992227
:0B1869002430FBA2089209AD43AF42FF
:101874008F448D45AF03121F438F47E4F54675F03F
:1018840020E547A424EEF582E5F03400F583E582F3
:101894002546F582E43583F583E493F548E545254B
:1018A40046FDAB48AF4412212F75F020E547A42430
:1018B400FEF582E5F03400F583E5822546F582E401
:1018C4003583F583E493F548300903434880E544C0
:1018D40004FFE5452546FDAB4812212F0546E546A4
:0618E400C394104099229C
:0D21C500FDE675F00A84E5F02430FBE4FF30
:0521D200C2090218F033
:0B21E700740C2543F5437B3AFDAF422A
:0521F200C2090218748F
:101E67008F3A8D3BE47894F67894E6FFC394085054
:101E77002DE53B2FFDE4FBAF3A12212FE53A04FF96
:101E87007894E6FE253BFDEE64036004EEB404049B
:0F1E97007B1880027B0012212F78940680CA22CC
:10164A008F378D388B39E53925E025E02456F8E6C1
:10165A0075F00A842430FBAF371221D2E53925E030
:10166A0025E02456F8E675F00A84E5F02430FBE517
:10167A00382408FDAF371221D2E5382410FD7B3A11
:10168A00AF371221D2E53925E025E02457F8E6756F
:10169A00F00A842430FBE5382418FDAF371221D232
:1016AA00E53925E025E02457F8E675F00A84E5F0E7
:1016BA002430FBE5382420FDAF371221D2E5382447
:1016CA0028FD7B3AAF371221D2E53925E025E024FF
:1016DA0058F8E675F00A842430FBE5382430FDAF6B
:1016EA00371221D2E53925E025E02458F8E675F0CD
:1016FA000A84E5F02430FBE5382438FDAF3712219F
:10170A00D2E5382440FDAF37121E67E53925E025BA
:10171A00E02459F8E62430FBE5382448FDAF3702C7
:02172A0021D2CA
:1020D70074802FF876FF74852FF876FF747A2FF8BF
:0F20E70076FF74762FF876FF747D2FF876FF2240
:10202800788876FF788376FF787976FF788476FFEC
:10203800E47894F67894E6FFC3940350081220D706
:0620480078940680EF22EF
:101D410074802FF8E66D7040ED25E025E02456F90A
:101D510074852FF8E6677030ED25E025E02457F90A
:101D6100747A2FF8E6677020ED25E025E02458F914
:101D710074762FF8E6677010ED25E025E02459F917
:0C1D8100747D2FF8E6676002D322C322B5
:101E200074802FF8A605ED25E025E02456F8E6FE9F
:101E300074852FF8A606ED25E025E02457F8E6FE88
:101E4000747A2FF8A606ED25E025E02458F8E6FE82
:101E500074762FF8A606ED25E025E02459F8E6FE75
:071E6000747D2FF8A6062295
:100BA400788AE66003D38001C39203E4788AF6303E
:100BB400030A754A7FFB7D07FF121FC6E513B402C3
:100BC40003D38001C39200E513B40303D38001C3AC
:100BD4009201E513B40103D38001C39202300015DE
:100BE40085093A850A3B85083C850B3DC374079506
:100BF4000EF53E80117895E6F53A08E6F53B08E6F1
:100C0400F53C08E6F53D30010B850D3F8514408524
:100C14001041800D7899E6F53F08E6F54008E6F5C1
:100C240041300108E50EB40503D38001C3920430BA
:100C34000108E50EB40403D38001C3920530010812
:100C4400E50EB40303D38001C39206300108E50E18
:100C5400B40203D38001C3920730010AE50E600396
:100C6400B40103D38001C39208754318AE3AAF3B75
:100C74007C037DE8120FA8EF2430FB300007E53E2B
:100C84007003D38001C31218EA74082543F543AEF8
:100C94003AAF3B7C007D64120FA87C007D0A120FE2
:100CA400A8ED2430FB300008E53EB40103D38001F5
:100CB400C31218EA74082543F543AE3AAF3B7C00EF
:100CC4007D0A120FA87C007D0A120FA8ED2430FBC8
:100CD400300008E53EB40203D38001C31218EA745D
:100CE400082543F543AE3AAF3B7C007D0A120FA8BA
:100CF400ED2430FB300008E53EB40303D38001C388
:100D04001218EA74082543F5437B2DFDE4FF1221F4
:100D1400D274082543F543E53C75F00A842430FB7E
:100D2400300008E53EB40403D38001C31218EA740A
:100D3400082543F543E53C75F00A84E5F02430FBCF
:100D4400300008E53EB40503D38001C31218EA74E9
:100D5400082543F5437B2DFDE4FF1221D2740825B9
:100D640043F543E53D75F00A842430FB300008E583
:100D74003EB40603D38001C31218EA74082543F570
:100D840043E53D75F00A84E5F02430FB300008E5C6
:100D94003EB40703D38001C31218EA754203C37437
:100DA400809464FFE49400C313EF13F543E53F75A7
:100DB400F00A842430FBA20412186E740C2543F547
:100DC40043E53F75F00A84E5F02430FBA2051218D0
:100DD4006E1221E7740C2543F543E54075F00A844F
:100DE4002430FBA20612186E740C2543F543E5402B
:100DF40075F00A84E5F02430FBA20712186E122164
:100E0400E7740C2543F543E54175F00A841218692B
:100E1400740C2543F543E54175F00A84E5F0121896
:100E240069E4FB7D307F061219DA7B017D407F0681
:100E34001219DA7889E6FFF46010EFB50F03200287
:100E440009C209121966788976FF30023C3011070D
:100E5400E50F7003D38001C39209E4FF12196630D1
:100E64001108E50FB40103D38001C392097F011275
:100E74001966301108E50FB40203D38001C3920947
:0A0E84007F021219667889A60F227A
:05225F00C2100220285E
:10135400301007788AE664026003D38001C39200E8
:10136400300010754A7FE4FB7D07FF121FC6122070
:1013740028D210788A7602753B00753C00753D8C46
:10138400753E00753F0075408D75410075420075CE
:10139400438E7B007A00798B12072E788F7610208B
:1013A40000087988E7788B66601E788FE6FD788B75
:1013B400E675F00A841221CD788FE62408788B1222
:1013C40021C5788BE67888F6788FE62410FD7B3A81
:1013D400E4FF1221D22000087983E7788C6660202C
:1013E400788FE62418FD788CE675F00A841221CDF6
:1013F400788FE62420788C1221C5788CE67883F6E1
:10140400788FE62428FD7B3AE4FF1221D2200008DD
:101414007979E7788D666021788FE62430FD788DC0
:10142400E675F00A841221CD788FE62438FD788D94
:101434001221C6788DE67879F6788FE62440FDE4AB
:10144400FF121E672000087984E7788E66601178A1
:101454008FE62448FD18E61221CD788EE67884F6CE
:10146400E47890F67890E6FFC394034002A141E645
:10147400FE25E0240208F6784FE6FDEEC39D400207
:10148400A11AED14C39F7892F60408F620000F7891
:1014940090E6FF7892E6FD121D414002A13CE4F57E
:1014A400357536207891E6FF04FD754A7FE4FB121A
:1014B4001FC67891E6FF7B4CAD351221D274082506
:1014C40035F5357891E6FF7893E6FEC3940A400B30
:1014D400EE75F00A842430FEFB80027B20AD3512C9
:1014E40021D274082535F5357891E6FF7893E675B1
:1014F400F00A84E5F02430FBAD351221D27891E670
:10150400FF08E6FBAD3612164A7890E6FF7892E6BD
:10151400FD121E20802220000A7890E62480F8E63E
:10152400F460157891E6FF04FD754A7FE4FB121F11
:0E153400C67890E6FF1220D7789006816822D4
:10172C00788AE664026003122095788A76027850F3
:10173C00E625E025E0788DF6E4788BF6788BE6FFED
:10174C0025E0788EF618E6FD2FFFE433FE784FE6A1
:10175C00FBC3EF9B7480F86E98505CED788B260879
:10176C00F604788FF618E6FF04FD754A7FE4FB1249
:10177C001FC6788EE6FF08E6FEC3940A400BEE7592
:10178C00F00A842430FEFB80027B20E4FD1221D27F
:10179C00788EE6FF08E675F00A84E5F02430FB7DD0
:1017AC00081221D278907620788EE6FF788CE6FBB2
:1017BC007D2012164A800E788EE6FF04FD754A7F56
:1017CC00E4FB121FC6788B06E6C394045002E14872
:0117DC0022EA
:10000E0000E010080810E000000F102020100F0074
:10001E00001010F8000000000020203F20200000FB
:10002E000070080808887000003028242221300053
:10003E0000300888884830000018202020110E005B
:10004E000000C02010F8000000070424243F240004
:10005E0000F80888880808000019212020110E00D9
:10006E0000E0108888180000000F112020110E00EB
:10007E0000380808C83808000000003F00000000E3
:10008E000070880808887000001C222121221C00A4
:10009E0000E010080810E0000000312222110F00CD
:1000AE00000000C0C0000000000000303000000062
:1000BE00000000000000000000010101010101002C
:1000CE0000000000806018040060180601000000A7
:1000DE000000000000000000000000000000000012
:1000EE000000F0F80C04040CF8F000000000000012
:1000FE0000000F1F302020301F0F000000000000F6
:10010E000000001010FCFC000000000000000000C9
:10011E0000000020203F3F202000000000000000D3
:10012E000000181C0404040CF8F00000000000008D
:10013E00000030382C262321203000000000000063
:10014E000000181C848484CC783800000000000065
:10015E0000001838202020311F0E00000000000083
:10016E0000000080C06030FCFC00000000000000B9
:10017E00000007050404043F3F04040000000000D3
:10018E000000FCFC848484840C0C00000000000041
:10019E0000001838202020311F0E00000000000043
:1001AE000000F0F84C4444CC881800000000000019
:1001BE0000000F1F302020301F0F00000000000035
:1001CE0000000C0C040484E47C1C00000000000001
:1001DE0000000000003E3F01000000000000000093
:1001EE00000078FC84040484FC7800000000000009
:1001FE0000001E3F212020213F1E000000000000B5
:10020E000000F0F80C04040CF8F0000000000000F0
:10021E0000001833222222321F0F000000000000BF
:10022E000000000000606000000000000000000000
:10023E000000000000303000000000000000000050
:10024E0000000000000000000000000000000000A0
:10025E000000020202020202020200000000000080
:10026E00000000000080E0781E0600000000000084
:10027E000000303C0F0300000000000000000000F2
:10028E000000000000000000000000000000000060
:10029E000000000000000000000000000000000050
:1002AE00000000C0F0F83C0E060707070707060E11
:1002BE003CF8F0C0000000000000F0FFFF0F00004F
:1002CE000000000000000000000FFFFFF000000023
:1002DE0000000FFFFFF00000000000000000000013
:1002EE0000F0FFFF0F000000000000030F1F3C7026
:1002FE0060E0E0E0E0E060703C1F0F0300000000F3
:10030E000000000000000000000000FCFCFC0000EB
:10031E0000000000000000000000000000000000CF
:10032E00000000FFFFFF00000000000000000000C2
:10033E000000000000000000000000FFFFFF0000B2
:10034E00000000000000000000000000000000009F
:10035E00000000FFFFFF0000000000000000000092
:10036E000000001C1E0E07070707070707070E1ED3
:10037E00FCF8F0000000000000000000000000008B
:10038E0000000080E0F8FE7F1F0701000000000063
:10039E000000C0F0FCFE7F1F0F07030100000000ED
:1003AE0000000000000000000000E0E0E0E0E0E0FF
:1003BE00E0E0E0E0E0E0E0E0E0E0E0E000000000AF
:1003CE000000001C1E0E07070707070707070E1E73
:1003DE00FCF8F0000000000000000000000000002B
:1003EE000E0E0E0E0E0E0F1FFBF1E00000000000B1
:1003FE000000000000000000707070707070F0F867
:10040E00DF8F070000000000000000387870E0E089
:10041E00E0E0E0E0E0E070783F1F0F000000000039
:10042E000000000000000000C0F0FCFEFFFF000016
:10043E00000000000000000000000000E0FCFFFFD4
:10044E001F030000FFFFFF0000000000000000007F
:10045E000000FEFFFF01000000000000FFFFFF0094
:10046E000000000000000000000000010101010179
:10047E0001010101FFFFFF01010101010000000068
:10048E00000000FFFFFF070707070707070707071B
:10049E000707070000000000000000FFFFFF0E0E20
:1004AE000E0E0E0E0E0E0E0F0703000000000000C3
:1004BE00000000070707707070707070707070F831
:1004CE00F89F0F0000000000000000387870E0E098
:1004DE00E0E0E0E0E0E070783F1F0F000000000079
:1004EE00000000C0F0F83C1E0E07070707070707BD
:1004FE000E0E0000000000000000F0FFFF0F0707C7
:10050E000707070707070F0FFEFCF00000000000AB
:10051E0000000FFFFFF07070707070707070F0F868
:10052E00DF8F070000000000000000030F1F3C706B
:10053E0070E0E0E0E0E070783F1F0F000000000088
:10054E0000000007070707070707070707C7F7FF9A
:10055E007F1F0700000000000000000000000000E8
:10056E000000C0F8FF7F0F01000000000000000037
:10057E0000000000000000E0FEFF3F07000000004A
:10058E0000000000000000000000000000E0FFFF7F
:10059E003F0300000000000000000000000000000B
:1005AE0000000078FCFE8E070707070707078EFE80
:1005BE00FC780000000000000000E0F1FB1F0F0EB1
:1005CE000E0E0E0E0E0F1FFBF1E0000000000000DD
:1005DE000000078FDFF8F0707070707070F0F8DF49
:1005EE008F070000000000000000001E3F7F71E03A
:1005FE00E0E0E0E0E0E0717F3F1E00000000000060
:10060E00000000F0F8FC1E0E0707070707070E1E76
:10061E00FCF8F000000000000000071F3F7970702A
:10062E00E0E0E0E0E07070F8FFFF1F000000000067
:10063E00000000000000000000000101010181E740
:10064E00FFFFFC0000000000000000000070707052
:10065E00E0E0E0E0E0E071793F1F070000000000FD
:10066E00000000000000000000E0E0E0E0000000FC
:10067E00000000000000000000000000000000006C
:10068E000003030303000000000000000000000050
:10069E00000000000000000000C0C0C0C00000004C
:1006AE00000000000000000000000000000000003C
:1006BE000007070707000000000000000000000010
:1006CE00000000000000000000000000000000001C
:1006DE00000000000000000000000000000000000C
:1006EE0000000000000000000000000000000000FC
:1006FE0000000000000000000000000000000000EC
:10070E0000000000000000000000000000000000DB
:10071E0000E0E0E0E000000000000000000000004B
:101F4300EFC39430400CEFD394395006C3EF943071
:101F5300FF22EF24D3600D14600A14600A24F57085
:0D1F6300097F0A227F0B227F0C227F0D22B6
:101A6C00041600000000011500011A00C10BC10A88
:021A7C00C10C9B
:0422730043B00F2243
:1021140020B0037F012220B1037F022220B2037F7B
:0B212400032220B3037F04227F00226F
:101C0800122114EF65157042E51AC39403500305B9
:101C18001A22EF602D200B0FD20BC20AF51675178A
:101C280001E4F518F519220519E51970020518C31C
:101C38009496E51894004017E5176402601175172B
:101C48000222300B0AC20BD20C228F15E4F51A229D
:101EA600E4FFE517B4020C200A09E5164410FFD238
:101EB6000A800FE517B4010A300C07200A04AF1692
:101EC600D20A300A10300C0DE4F516F517F518F5A0
:061ED60019C20CC20A2231
:10216300C283AF041222138B90D284122173C284D0
:07217300E4FF0FBF0AFC228C
:0D221300EF7005D280C28122C280D28122EC
:05226400C280C28122CE
:061F7000AC05AB07AF0455
:101F7600E4FE7590FFC282D283122213D28412210C
:101F860073AD90C2841221730EEED394C85004ED43
:061F960020E7E9022264CD
:0B223900121F70C28212216302226497
:0B224400121F70D2821221630222647C
:101CA700C285E4FFFE0FBF00010EBE13F8BF88F523
:101CB700D285E4FEFF0FBF00010EBE27F8BF10F567
:101CC700E4FD7F3F1222397D017F3F122239E4FD77
:101CD7007FC01222397D017FC0122239E4FEFF0F37
:0D1CE700BF00010EBE03F8BFE8F502209516
:101EDC00AA05EAC394405004E4F98006790174C061
:101EEC002AFAEFD3940740027F07EAD3943F4002CB
:101EFC007A3FEF44B8FFAD01122239EA4440FFADFE
:041F0C000102223973
:10209500E4F535E4F536E4FBAD36AF3512212F0511
:1020A50036E536C3948040EE0535E535C3940840E2
:0220B500E22225
:101FC6008D488B498F4BE54BD39548501B85494C23
:101FD600E54CD3954A500DE4FBAD4CAF4B12212F87
:091FE600054C80EC054B80DE2265
:10212F008D4D8B4E121EDCE54DC394405004E4FDE3
:0A213F0080027D01AF4E12224422FF
:101A7E00011300010F00010E00010C000211000005
:021A8E00C19104
:102072000510E510C3943C4019E4F5100514E5146D
:10208200943C400EE4F514050DE50D94184003E46C
:03209200F50D2227
:03000B00021D8D46
:101D8D00C0E0C0F0C083C082C0D075D000C000C01C
:101D9D0001C002C003C004C005C006C007758CB8E1
:101DAD00758A00121FEF1220F6121C081220B705BB
:101DBD000CD007D006D005D004D003D002D001D06E
:0C1DCD0000D0D0D082D083D0F0D0E03223
:0D222000BF0409751301E4F50F12224F22CF
:101A9E008F33E533B4040F050FE50FD394024003E3
:101AAE00E4F50F02224FE53364017043E50F701623
:101ABE007513027895E6F50908E6F50A08E6F508C5
:101ACE0008E6F50B8015E50FB4011675130378992A
:101ADE00E6F50D08E6F51408E6F510E4F50E020B32
:101AEE00A4E50FB4020975130412225F12135422D7
:100800008F33E533B41102800CE533B4011DE50EDE
:10081000C394074012AB0BAD08AF0AAE091221F723
:10082000E4F513F50E61A0050E61A0E533640260E6
:100830000221DAE50E704BE50B75F00A84F534E51C
:100840000B75F00A8485F0350535E535D3940940FC
:1008500010E4F535E53494034005E4F534800205F1
:1008600034E53475F00AA42535F50BAD08AF0AAEB2
:1008700009121F10E50BD39F504AE50B600221D8E7
:100880008042E50E64017041E50B75F00A8485F045
:1008900035E50B75F00A84F5340534E534D394035B
:1008A0004003E4F534E53475F00AA42535F50BADC5
:1008B00008AF0AAE09121F10E50BD39F5006E50BD7
:1008C000600221D8750B0121D8E50E64027053E552
:1008D0000875F00A84F536E50875F00A8485F03766
:1008E0000537E537D394094010E4F537E536940130
:1008F0004005E4F53680020536E53675F00AA42594
:1009000037F508D3940C5004E5087003750801AD61
:1009100008AF0AAE09121F10E50BD39F500221D871
:1009200021CDE50E64037044E50875F00A8485F076
:1009300037E50875F00A84F5360536E536D39401B7
:100940004003E4F536E53675F00AA42537F508D3FB
:10095000940C5004E5087003750801AD08AF0AAEA9
:1009600009121F10E50BD39F406E8061E50EC39402
:10097000044065E50ED39407505E75380075390163
:10098000E4F537E50E24FCFFE537C39F5013AE387E
:10099000AF397C007D0A120F968E388F390537806B
:1009A000E2E539250AF50AE5383509F509D3E50AFE
:1009B0009433E50994084006750907750AD0AD0817
:1009C000AF0AAE09121F10E50BD39F400BAD08AF65
:1009D0000AAE09121F108F0B61A0E5336403600299
:1009E0006185E50E7048E50B75F00A84F534E50B7A
:1009F00075F00A8485F035E5357010753509E534F4
:100A000070057534038006153480021535E534759C
:100A1000F00AA42535F50BAD08AF0AAE09121F1078
:100A2000E50BD39F5047E50B600261836178E50ECB
:100A30006401703BE50B75F00A8485F035E50B75B4
:100A4000F00A84F534700575340380021534E534FA
:100A500075F00AA42535F50BAD08AF0AAE09121FD3
:100A600010E50BD39F5006E50B600261836178E5CA
:100A70000E64027050E50875F00A84F536E50875D5
:100A8000F00A8485F037E5377010753709E5367060
:100A9000057536018006153680021537E53675F086
:100AA0000AA42537F508D3940C5004E508700375A3
:100AB000080CAD08AF0AAE09121F10E50BD39F500A
:100AC0000261836178E50E64037041E50875F00A00
:100AD0008485F037E50875F00A84F53670057536BB
:100AE0000180021536E53675F00AA42537F508D3DE
:100AF000940C5004E508700375080CAD08AF0AAEFD
:100B000009121F10E50BD39F4079806CE50EC3944A
:100B1000044070E50ED394075069753800753901AB
:100B2000E4F537E50E24FCFFE537C39F5013AE38DC
:100B3000AF397C007D0A120F968E388F39053780C9
:100B4000E2E53924D0FFE5383407FEC3E50A9FE526
:100B5000099E5008750908750A33800DC3E50A958A
:100B600039F50AE5099538F509AD08AF0AAE09125D
:100B70001F10E50BD39F400BAD08AF0AAE09121F43
:100B8000108F0B801BE533B40419E4F513F50E78D0
:100B900095E6F50908E6F50A08E6F50808E6F50B16
:040BA000120BA4226E
:101123008F33E533B4110BAB10AD14AF0D122205A1
:10113300614BE53364017027E50E6003B401057567
:101143000E026150E50EC394054010AB10AD14AF11
:101153000D122205E4F513F50E6150050E6150E5FD
:1011630033640260024166E50ED39401501DE4F539
:10117300100514E514C3943C50024164E4F51405CE
:101183000DE50D9418500241644161E50E6402704F
:101193002CE51475F00A84F534E51475F00A84859A
:1011A300F0350535E535D394094034E4F535E534B8
:1011B30094054005E4F534802605348022E50EB419
:1011C3000329E51475F00A8485F035E51475F00AF2
:1011D30084F5340534E534D394054003E4F534E56C
:1011E3003475F00AA42535F5148076E50E64047091
:1011F3003BE50D75F00A84F534E50D75F00A848539
:10120300F0350535E535D394094010E4F535E5347B
:1012130094024005E4F53480020534E53475F00AA0
:10122300A42535F50DC3941840378032E50E6405C7
:10123300702FE50D75F00A8485F035E50D75F00A1C
:1012430084F5340534E534D394024003E4F534E5FE
:101253003475F00AA42535F50DC394184003E4F55D
:101263000D6150E533640360026146E50ED39401DA
:101273005005E4F5106144E50E64027029E5147528
:10128300F00A84F534E51475F00A8485F035E53504
:101293007010753509E534700575340580271534EC
:1012A30080231535801FE50EB40326E51475F00A77
:1012B3008485F035E51475F00A84F53470057534CA
:1012C3000580021534E53475F00AA42535F514803C
:1012D30070E50E64047038E50D75F00A84F534E5A5
:1012E3000D75F00A8485F035E5357010753509E51F
:1012F3003470057534028006153480021535E534E3
:1013030075F00AA42535F50DC394184034802FE5F4
:101313000E6405702CE50D75F00A8485F035E50D36
:1013230075F00A84F534700575340280021534E5CE
:101333003475F00AA42535F50DC394184003750DD3
:1013430017800AE533B40408E4F513F50E120BA471
:011353002277
:101CF4008F33E533B411081221A012225F801DE551
:101D040033B401107855E6B4010512226E80031233
:101D140022698008E533B40206121B5D021354E500
:101D240033B4030A751305E47850F602172CE5332F
:0D1D3400B40409E4F51312225F120BA4227F
:101C58008F33E5336402702A785006784FE6240300
:101C6800FFE433FEEF7802CEC313CE13D8F9F53470
:101C780070037534017850E6C395344002E4F602E7
:101C8800172CE533B4030975130412225F021354A9
:0F1C9800E533B40409E4F51312225F120BA42202
:10154200121CA7E4FFFE0FBF00010EBE27F8BF105A
:10155200F512227312218D1221D7C2A0120BA412EE
:10156200217A121EA68F32E5326020789AE6FFB405
:101572003B0E08E6FEC394374006EED3943B400888
:10158200EF7008789BE6700312204EE51364017039
:1015920036E5326009E4F511F512D21180303011CE
:1015A2002D0512E51270020511AE11FFE4FCFD7B60
:1015B200507AC3F9F8D31210CB5013C211E4F50FCD
:1015C200F513120BA48007D211E4F511F512E513FD
:1015D20014602A14602024FE600E1460122402702B
:1015E20023AF321211238021AF32121CF4801AAFC2
:1015F20032121C588013AF32120800800CAF321224
:101602001A9E8005AF32122220300F23C20F121A07
:10161200FEE513B40303122072E513600F64016048
:101622000BE51364026005E513B40303120BA4E592
:101632001364046002A164E50CC394025002A16425
:08164200E4F50C121354A1643D
:10214900AD08AF0AAE09121F10E50B7004750B013B
:0A21590022E50BD39F40028F0B22FA
:06224F00122149020BA45C
:0D1A900005510000000000014F0001500052
:10218D00785112110A00000000E47855F6784FF6E8
:03219D0008F6221F
:1020F6007855E6B4011778511210F2EF2401FFE487
:0E2106003EFEE43DFDE43CFC78511210FE224A
:0522690078557601220A
:05226E00785576022204
:1021A000785112110A00000000E47855F6784FF6D5
:0321B00008F6220C
:101B5D00784FE6C394085052753B00753C00753DB7
:101B6D0035753E00753F0075403675410075420074
:101B7D007543377B007A00793412072E784FE6FFD4
:101B8D0025E025E02456F8A634EF25E025E024577E
:101B9D00F8A635EF25E025E02458F8A636EF25E028
:0B1BAD0025E02459F8A637784F0622E7
:10072E008B388A39893A78511210F28F478E468D5E
:10073E00458C44E47B0AFAF9F8121039E47B0AFA84
:10074E00F9F8121039AF03AB41AA42A943EF120FC9
:10075E0084AF47AE46AD45AC44E47B64FAF9F8127B
:10076E0010398F478E468D458C44E47B3CFAF9F860
:10077E00121039AF03AB3EAA3FA940EF120F84AF60
:10078E0047AE46AD45AC44E47B3CFAF9F81210395D
:10079E008F478E468D458C44E47B3CFAF9F8121057
:1007AE0039AF03AB3BAA3CA93DEF120F84AF47AE66
:1007BE0046AD45AC44E47B3CFAF9F81210398F474C
:1007CE008E468D458C44E47F63FEFDFCAB47AA4606
:1007DE00A945A844D31210E1400AE4754763F546D3
:0F07EE00F545F544AB38AA39A93AE547020F841F
:030000000217DD07
:0C17DD00787FE4F6D8FD75819C0218248A
:100E8E00E709F608DFFA8046E709F208DFFA803E46
:100E9E0088828C83E709F0A3DFFA8032E309F60833
:100EAE00DFFA8078E309F208DFFA807088828C839B
:100EBE00E309F0A3DFFA806489828A83E0A3F6084F
:100ECE00DFFA805889828A83E0A3F208DFFA804C29
:100EDE0080D280FA80C680D4806980F28033801000
:100EEE0080A680EA809A80A880DA80E280CA803369
:100EFE0089828A83ECFAE493A3C8C582C8CCC583E1
:100F0E00CCF0A3C8C582C8CCC583CCDFE9DEE780B0
:100F1E000D89828A83E493A3F608DFF9ECFAA9F02F
:100F2E00EDFB2289828A83ECFAE0A3C8C582C8CC85
:100F3E00C583CCF0A3C8C582C8CCC583CCDFEADE9E
:100F4E00E880DB89828A83E493A3F208DFF980CC00
:100F5E0088F0EF60010E4E60C388F0ED2402B404F9
:100F6E000050B9F582EB2402B4040050AF232345A0
:060F7E008223900EDE73D9
:100F8400BB010689828A83F0225002F722BBFE014C
:020F9400F32246
:100F9600EF8DF0A4A8F0CF8CF0A428CE8DF0A42E6F
:020FA600FE2229
:100FA800BC000BBE0029EF8DF084FFADF022E4CC2D
:100FB800F875F008EF2FFFEE33FEEC33FCEE9DECF6
:100FC800984005FCEE9DFE0FD5F0E9E4CEFD22ED3C
:100FD800F8F5F0EE8420D21CFEADF075F008EF2F86
:100FE800FFED33FD4007985006D5F0F222C398FD77
:050FF8000FD5F0EA2214
:100FFD0075F008758200EF2FFFEE33FECD33CDCCAB
:10100D0033CCC58233C5829BED9AEC99E58298402D
:10101D000CF582EE9BFEED9AFDEC99FC0FD5F0D60A
:10102D00E4CEFBE4CDFAE4CCF9A88222B800C1B934
:10103D000059BA002DEC8BF084CFCECDFCE5F0CB72
:10104D00F97818EF2FFFEE33FEED33FDEC33FCEBAB
:10105D0033FB10D703994004EB99FB0FD8E5E4F966
:10106D00FA227818EF2FFFEE33FEED33FDEC33FC53
:10107D00C933C910D7059BE99A4007EC9BFCE99A47
:10108D00F90FD8E0E4C9FAE4CCFB2275F010EF2F8C
:10109D00FFEE33FEED33FDCC33CCC833C810D7078C
:1010AD009BEC9AE899400AED9BFDEC9AFCE899F8C7
:0E10BD000FD5F0DAE4CDFBE4CCFAE4C8F9225A
:1010CB00EB9FF5F0EA9E42F0E99D42F0EC6480C89C
:0610DB0064809845F0223C
:1010E100EB9FF5F0EA9E42F0E99D42F0E89C45F065
:0110F10022DC
:0C10F200E6FC08E6FD08E6FE08E6FF222A
:0C10FE00ECF608EDF608EEF608EFF6221E
:10110A00D083D082E493F608740193F608740293AC
:09111A00F608740393F6740473E3
:1017E900021542E493A3F8E493A34003F68001F2BF
:1017F90008DFF48029E493A3F85407240CC8C33301
:10180900C4540F4420C8834004F456800146F6DFCF
:10181900E4800B0102040810204080901A3DE47E08
:10182900019360BCA3FF543F30E509541FFEE493C4
:10183900A360010ECF54C025E060A840B8E493A38B
:10184900FAE493A3F8E493A3C8C582C8CAC583CAB6
:10185900F0A3C8C582C8CAC583CADFE9DEE780BE6E
:011A9D000048
:00000001FF
