:0A17F200C10E011B00C10D011CFF18
:10203D00EF600ED2A0D20E543FFFE51B54C04FF5FA
:02204D001B2254
:10207200C2A0C20EE4F51BE51B543F44C0F51B226F
:101F5900300E1CE51B543FFF7002800F1FEF543FEA
:101F6900FEE51B54C04EF51BEF7004C2A0C20E2241
:101E4F0078A7E6FC08E6FDC394D0EC9407401AD3BC
:101E5F00ED9433EC9408501108E6FEC39401400949
:0A1E6F00EED3940C500312203D2224
:08000300C2A0C20E531BC02273
:101EF00078ACE6B43B1318E62401FFE433FE7C0023
:101F00007D18120CEDAB05800478ABE6FBD20D8B8F
:041F10001C020003AC
:10199C0078ADE6FF543FFEE51BC4131354036E6091
:1019AC0050EE543FC4333354C0FDE51B543F4DF54A
:1019BC001B300D1BE51CB4FF04C20D801278ABE686
:1019CC00651C702DEFD394004027C20D751CFF7859
:1019DC00ACE6FBB43B10EEC39437400AEED3943B19
:1019EC0050047F088008EB7008EE70057F32121EE1
:0219FC004F2278
:0C20BA001F1C1F1E1F1E1F1F1E1F1E1FAD
:1017FC0008A707E90B12173B3200C10F0C55000369
:0A180C0002050003050104060204B2
:101FEB005389F0438901758CB8E4F58AD2A9D2AF35
:031FFB00D28C2263
:1020610078AE06E6C394644007E4F6121C8CD20FE6
:01207100224C
:101EA200AB07AA06EB5403700AFC7D64120CEDED3D
:101EB2004C700FAE02AF037C017D90120CEDED4C25
:081EC20070037F01227F002262
:101DC3008E3A8F3B8D3C783D7C007D007BFF7A20F3
:101DD30079BA7E007F0C120CA3E53CB4020DAF3B35
:101DE300AE3A121EA2EF60037F1D22743C253CF81D
:031DF300E6FF22E6
:101C8C0078AD06E6C3943C403DE4F61806E6943C79
:101C9C004034E4F61806E69418402BE4F61806785F
:101CAC00A7E6FE08E6FF08E6FD121DC378AAE6D3F8
:101CBC009F401376011806E6D3940C400976011860
:071CCC0006E6187001062274
:0E07F20078A7A60608A60708A60508A60322F3
:0E20920078ABA60708A60508A603E408F62208
:101861008B4AAB07AA068D4BE54BC394035005EB9E
:101871001B70011AAE02EB7802CEC313CE13D8F956
:101881002BF582EE3AF5837C007D64AF03AE021244
:101891000CEDC3E5829FF582E5839EF583AE02AF31
:1018A100037C017D90120CEDEF2582FFEE3583FE66
:1018B1007454254BF8E67C002FFFEC3EFEEF254AE1
:0C18C100FFEC3EFE7D07120CEDAF05228F
:1018CD002424A4FE232200C03800FF00081060006D
:1018DD00080601FF01068180404027100C0300001F
:1018ED0000042424242424FF24242424240400007C
:1018FD0021211109FD8341230509112925414100AC
:10190D0053554E004D4F4E0054554500574544001C
:10191D00544855004652490053415400E0C08000E0
:0C192D00000000000F0703010000000094
:10181600019CFFC110019AFF0195FF018BFF019604
:09182600FF0392FFFFFF019BFF8D
:101939008F4A8D4B8B4CE4F54DE54CC43354E02470
:10194900CDF582E43418F583E582254DF582E43539
:1019590083F583E493FBE54B254DFDAF4A121FD177
:10196900E54CC43354E024DDF582E43418F583E50D
:1019790082254DF582E43583F583E493FBE54A043A
:10198900FFE54B254DFD121FD1054DE54DC39410C3
:0319990040A72242
:10177E00EF7003FF8009BF01047F0380027F068F95
:10178E004AC374809464FFE49400C313EF13FFD331
:10179E00940A4006EF24F6FF80027F008F4C30093A
:1017AE0031E4F54BE54C254BFDE54B90192993FBA8
:1017BE00AF4A121FD1E54A04FFE54C254BFDE54B20
:1017CE0090193193FB121FD1054BE54BC394084082
:1017DE00D322E54A04FDE54C2407F550AB4CAF4A45
:0417EE00121E79222C
:061702009209AD43E4FF73
:101708008F4A8D4BAF03121DF68F4DE4F54C75F0E3
:1017180010E54DA4240EF582E5F03400F583E5824A
:10172800254CF582E43583F583E493F54EE54B25A6
:101738004CFDAB4EAF4A121FD175F010E54DA424F5
:1017480016F582E5F03400F583E582254CF582E450
:101758003583F583E493F54E300903434E80E54A1B
:1017680004FFE54B254CFDAB4E121FD1054CE54C53
:06177800C3940840992211
:0B1681002430FBA2089209AD43AF42E9
:10168C008F4A8D4BAF03121DF68F4DE4F54C75F060
:10169C0020E54DA4248EF582E5F03402F583E58235
:1016AC00254CF582E43583F583E493F54EE54B2523
:1016BC004CFDAB4EAF4A121FD175F020E54DA42462
:1016CC009EF582E5F03402F583E582254CF582E443
:1016DC003583F583E493F54E300903434E80E54A98
:1016EC0004FFE54B254CFDAB4E121FD1054CE54CD0
:0616FC00C3941040992286
:0D204F00FDE675F00A84E5F02430FBE4FFA7
:05205C00C20902170893
:0B208200740E2543F5437B3AFDAF428E
:05208D00C20902168CDF
:101D1A008F3A8D3BE478A6F678A6E6FFC39408507E
:101D2A002DE53B2FFDE4FBAF3A121FD1E53A04FF44
:101D3A0078A6E6FE253BFDEE64036004EEB40404D7
:0F1D4A007B1880027B00121FD178A60680CA2268
:10141F008F378D388B39E53925E025E02468F8E6DC
:10142F0075F00A842430FBAF3712205CE53925E0D4
:10143F0025E02468F8E675F00A84E5F02430FBE532
:10144F00382408FDAF3712205CE5382410FD7B3AB5
:10145F00AF3712205CE53925E025E02469F8E67501
:10146F00F00A842430FBE5382418FDAF3712205CD6
:10147F00E53925E025E02469F8E675F00A84E5F002
:10148F002430FBE5382420FDAF3712205CE53824EB
:10149F0028FD7B3AAF3712205CE53925E025E024A3
:1014AF006AF8E675F00A842430FBE5382430FDAF86
:1014BF003712205CE53925E025E0246AF8E675F05F
:1014CF000A84E5F02430FBE5382438FDAF371220CD
:1014DF005CE5382440FDAF37121D1AE53925E025AC
:1014EF00E0246BF8E62430FBE5382448FDAF3702E3
:0214FF00205C6F
:101F790074922FF876FF74972FF876FF748C2FF8E8
:0F1F890076FF74882FF876FF748F2FF876FF227B
:101ECA00789A76FF789576FF788B76FF789676FF04
:101EDA00E478A6F678A6E6FFC394035008121F79A1
:061EEA0078A60680EF223D
:101BF40074922FF8E66D7040ED25E025E02468F935
:101C040074972FF8E6677030ED25E025E02469F934
:101C1400748C2FF8E6677020ED25E025E0246AF93E
:101C240074882FF8E6677010ED25E025E0246BF941
:0C1C3400748F2FF8E6676002D322C322F1
:101CD30074922FF8A605ED25E025E02468F8E6FECA
:101CE30074972FF8A606ED25E025E02469F8E6FEB3
:101CF300748C2FF8A606ED25E025E0246AF8E6FEAD
:101D030074882FF8A606ED25E025E0246BF8E6FE9F
:071D1300748F2FF8A60622D1
:10080000789CE66003D38001C39203E4789CF630C1
:10081000030A75507FFB7D07FF121E79E513B402B2
:1008200003D38001C39200E513B40303D38001C353
:100830009201E513B40103D38001C3920230001585
:1008400085093A850A3B85083C850B3DC3740795AD
:100850000EF53E801178A7E6F53A08E6F53B08E686
:10086000F53C08E6F53D30010B850D3F85144085CC
:100870001041800D78ABE6F53F08E6F54008E6F557
:1008800041300108E50EB40503D38001C392043062
:100890000108E50EB40403D38001C39205300108BA
:1008A000E50EB40303D38001C39206300108E50EC0
:1008B000B40203D38001C3920730010AE50E60033E
:1008C000B40103D38001C3920875430CAE3AAF3B29
:1008D0007C037DE8120CEDEF2430FB300007E53E91
:1008E0007003D38001C312170274082543F543AE89
:1008F0003AAF3B7C007D64120CED7C007D0A120C4B
:10090000EDED2430FB300008E53EB40103D3800157
:10091000C312170274082543F543AE3AAF3B7C007F
:100920007D0A120CED7C007D0A120CEDED2430FBEB
:10093000300008E53EB40203D38001C312170274ED
:10094000082543F543AE3AAF3B7C007D0A120CED1F
:10095000ED2430FB300008E53EB40303D38001C32F
:1009600012170274082543F5437B2DFDE4FF122086
:100970005C74082543F543E53C75F00A842430FB9C
:10098000300008E53EB40403D38001C3121702749B
:10099000082543F543E53C75F00A84E5F02430FB77
:1009A000300008E53EB40503D38001C3121702747A
:1009B000082543F5437B2DFDE4FF12205C740825D8
:1009C00043F543E53D75F00A842430FB300008E52B
:1009D0003EB40603D38001C312170274082543F501
:1009E00043E53D75F00A84E5F02430FB300008E56E
:1009F0003EB40703D38001C3121702AB3DAD3CAF39
:100A00003BAE3A1218618F44754568E4F546E544FB
:100A100025E025E0240DF582E43419F583E58225EF
:100A200046F582E43583F583E493F54924BFF54820
:100A3000C3941A506AE4F54775F010E548A424EE13
:100A4000F582E5F03400F583E5822547F582E4354B
:100A500083F583E493FBE54675F008A42545254717
:100A6000FDE4FF121FD175F010E548A424F6F582CD
:100A7000E5F03400F583E5822547F582E43583F51A
:100A800083E493FBE54675F008A425452547FD7FE3
:100A900001121FD10547E547C39408409B803AE403
:100AA000F547E54675F008A425452547FDE547903F
:100AB00000DE93FBE4FF121FD1E54675F008A42584
:100AC000452547FDE5479000E693FB7F01121FD1C6
:100AD0000547E547C3940840C90546E546C3940366
:100AE0005002410E754203C374849470FFE4940075
:100AF000C313EF13F543E53F75F00A842430FBA2DE
:100B000004121686740E2543F543E53F75F00A84FA
:100B1000E5F02430FBA205121686122082740E2501
:100B200043F543E54075F00A842430FBA206121613
:100B300086740E2543F543E54075F00A84E5F024FC
:100B400030FBA207121686122082740E2543F5434D
:100B5000E54175F00A84121681740E2543F543E5CC
:100B60004175F00A84E5F0121681E4FB7D307F06C2
:100B70001219397B017D407F06121939789BE6FFF7
:100B8000F46010EFB50F03200209C20912177E7836
:100B90009B76FF30023C301107E50F7003D38001D4
:100BA000C39209E4FF12177E301108E50FB4010368
:100BB000D38001C392097F0112177E301108E50F1F
:100BC000B40203D38001C392097F0212177E789B7F
:030BD000A60F224B
:0520DC00C210021ECA43
:10123100301007789CE664026003D38001C39200FA
:1012410030001075507FE4FB7D07FF121E79121EDE
:10125100CAD210789C7602753B00753C00753D9EA4
:10126100753E00753F0075409F75410075420075E0
:1012710043A07B007A00799D12150178A176102098
:101281000008799AE7789D66601E78A1E6FD789D51
:10129100E675F00A8412205778A1E62408789D1299
:1012A100204F789DE6789AF678A1E62410FD7B3AE6
:1012B100E4FF12205C2000087995E7789E666020A3
:1012C10078A1E62418FD789EE675F00A841220576D
:1012D10078A1E62420789E12204F789EE67895F634
:1012E10078A1E62428FD7B3AE4FF12205C20000867
:1012F100798BE7789F66602178A1E62430FD789F9D
:10130100E675F00A8412205778A1E62438FD789F0B
:10131100122050789FE6788BF678A1E62440FDE410
:10132100FF121D1A2000087996E778A066601178EF
:10133100A1E62448FD18E612205778A0E67896F633
:10134100E478A2F678A2E6FFC394034002811EE688
:10135100FE25E0240208F67861E6FDEEC39D400219
:1013610061F7ED14C39F78A4F60408F620000F7806
:10137100A2E6FF78A4E6FD121BF440028119E4F510
:101381003575362078A3E6FF04FD75507FE4FB1226
:101391001E7978A3E6FF7B4CAD3512205C740825DD
:1013A10035F53578A3E6FF78A5E6FEC3940A400B30
:1013B100EE75F00A842430FEFB80027B20AD3512ED
:1013C100205C74082535F53578A3E6FF78A5E67528
:1013D100F00A84E5F02430FBAD3512205C78A3E6F9
:1013E100FF08E6FBAD3612141F78A2E6FF78A4E6EB
:1013F100FD121CD3802220000A78A2E62492F8E68E
:10140100F4601578A3E6FF04FD75507FE4FB121E1E
:0E1411007978A2E6FF121F7978A206614522C3
:1015D000789CE664026003121F37789C760278627A
:1015E000E625E025E0789FF6E4789DF6789DE6FF15
:1015F00025E078A0F618E6FD2FFFE433FE7861E6DB
:10160000FBC3EF9B7480F86E98505CED789D2608C4
:10161000F60478A1F618E6FF04FD75507FE4FB128E
:101620001E7978A0E6FF08E6FEC3940A400BEE752B
:10163000F00A842430FEFB80027B20E4FD12205C53
:1016400078A0E6FF08E675F00A84E5F02430FB7D1B
:101650000812205C78A2762078A0E6FF789EE6FB50
:101660007D2012141F800E78A0E6FF04FD75507FC8
:10167000E4FB121E79789D06E6C394045002A1ECA7
:011680002247
:10000E0000E010080810E000000F102020100F0074
:10001E0000001010F8000000000020203F202000FB
:10002E00007008080808F000003028242221300053
:10003E0000300808088870000018202121221C00BA
:10004E000000804030F8000000060524243F2424E0
:10005E0000F88888880808000019202020110E005A
:10006E0000E0108888900000000F112020201F0053
:10007E0000180808886818000000003E0100000003
:10008E000070880808887000001C222121221C00A4
:10009E0000F008080810E0000001122222110F00E3
:1000AE00000000C0C0000000000000303000000062
:1000BE00000000000000000000010101010101002C
:1000CE0000000000806018040060180601000000A7
:1000DE000000000000000000000000000000000012
:1000EE0000000040C00000000020302F082F3020FC
:1000FE000040C0404040800000203F2222221D00D0
:10010E00000080404040C000000F10202020100052
:10011E000040C0404080000000203F2020100F0013
:10012E000040C0404040C00000203F222720300049
:10013E000040C0404040C00000203F2207000000A9
:10014E00000080404040C000000F102020241C04FE
:10015E000040C0400040C04000203F2202223F200D
:10016E0000004040C0404000000020203F20200002
:10017E000000004040C04000001C2020201F000056
:10018E000040C0400040C04000203F2406093020FF
:10019E000040C0400000000000203F20202038001A
:1001AE000040C0C000C0C04000203F2106213F20BB
:1001BE0040C0C0000040C040203F20030C303F0034
:1001CE000000804040408000000F10202020100FC3
:1001DE000040C0404040800000203F240404030043
:1001EE000000804040408000000F10606060504F63
:1001FE000040C0404040800000203F24040C1320EB
:10020E00008040404080C0000031122222221C009B
:10021E0000C04040C04040C0000000203F20000011
:10022E000040C0400040C04000001F2020201F00A2
:10023E0040C040000040C04000010E30300E0100B2
:10024E000040C0400040C04000001F201E201F0084
:10025E000040C0400040C040002030290629302018
:10026E000040C0400040C040000000233C2300007E
:10027E000000C0404040C000000030282621300061
:10028E00000000E0F81C060606061CF8E000000060
:10029E000000000F3F70C0C0C0C0703F0F000000D4
:1002AE0000000018181C0CFCFE00000000000000EE
:1002BE00000000C0C0C0C0FFFFC0C0C0C000000032
:1002CE000000383C0C06060606068CFC700000008A
:1002DE000000C0E0F0D8CCC6C6C3C1C0C00000004C
:1002EE00000000000C0C868686CE7C3800000000D4
:1002FE0000000060E0C0C1C1C1C3637E3C000000CD
:10030E000000000080E0703C0EFEFE0000000000C9
:10031E0000001C1E1B19D8D8D8FFFFD8D80000002B
:10032E00000000FEFE86C6C6C6C686860000000019
:10033E0000006061C1C1C0C0C0C0617F1E0000006E
:10034E00000080E07038180C0C0C0C0C0000000043
:10035E0000001F7F63C1C1C1C1E37F3C00000000EC
:10036E000000001E1E0606060686F6FE1E00000093
:10037E0000000000000000E0FC3F0700000000004D
:10038E000000387CCE86868686CE7C380000000043
:10039E0000003C7EE3C1C1C1C1E37E3C0000000011
:1003AE00000078FC8E060606068CFCF000000000AD
:1003BE000000C0C1C1C3C36373391F070000000032
:1003CE00000000000000383838380000000000003F
:1003DE00000000000000383838380000000000002F
:1003EE0000000000000000000000000000000000FF
:1003FE0000000202020202020202000000000000DF
:10040E00000000000080E0781E06000000000000E2
:10041E000000303C0F030000000000000000000050
:10042E0000000000000000000000000000000000BE
:10043E0000000000000000000000000000000000AE
:101DF600EFC39430400CEFD394395006C3EF9430C0
:101E0600FF22EF24D3600D14600A14600A24F570D3
:0D1E1600097F0A227F0B227F0C227F0D2204
:10182F00041600000000011500011A00C10BC10AC7
:02183F00C10CDA
:040FFC0043B00F22CD
:101FB60020B0037F012220B1037F022220B2037FDB
:0B1FC600032220B3037F04227F0022CF
:101ABB00121FB6EF65157042E51AC3940350030568
:101ACB001A22EF602D200B0FD20BC20AF5167517D9
:101ADB0001E4F518F519220519E51970020518C36B
:101AEB009496E51894004017E5176402601175177A
:101AFB000222300B0AC20BD20C228F15E4F51A22EC
:101D5900E4FFE517B4020C200A09E5164410FFD286
:101D69000A800FE517B4010A300C07200A04AF16E0
:101D7900D20A300A10300C0DE4F516F517F518F5EE
:061D890019C20CC20A227F
:10200000C283AF041220A08B90D284122010C2840D
:07201000E4FF0FBF0AFC22F0
:0D20A000EF7005D280C28122C280D2812261
:0520E100C280C2812253
:061E2300AC05AB07AF04A3
:101E2900E4FE7590FFC282D2831220A0D2841220D0
:101E390010AD90C2841220100EEED394C85004ED58
:061E490020E7E90220E1A0
:0B20C600121E23C2821220000220E143
:0B20D100121E23D2821220000220E128
:101B5A00C285E4FFFE0FBF00010EBE13F8BF88F571
:101B6A00D285E4FEFF0FBF00010EBE27F8BF10F5B5
:101B7A00E4FD7F3F1220C67D017F3F1220C6E4FDAF
:101B8A007FC01220C67D017FC01220C6E4FEFF0F6F
:0D1B9A00BF00010EBE03F8BFE8F5021F37C3
:101D8F00AA05EAC394405004E4F98006790174C0AF
:101D9F002AFAEFD3940740027F07EAD3943F400219
:101DAF007A3FEF44B8FFAD011220C6EA4440FFADC1
:041DBF00010220C637
:101F3700E4F535E4F536E4FBAD36AF35121FD105D0
:101F470036E536C3948040EE0535E535C394084041
:021F5700E22284
:101E79008D4E8B4F8F51E551D3954E501B854F5247
:101E8900E552D39550500DE4FBAD52AF51121FD11D
:091E9900055280EC055180DE22A7
:101FD1008D538B54121D8FE553C394405004E4FD7F
:0A1FE10080027D01AF541220D122CE
:10184100011300010F00010E00010C000211000044
:02185100C19143
:101F14000510E510C3943C4019E4F5100514E514CC
:101F2400943C400EE4F514050DE50D94184003E4CB
:031F3400F50D2286
:03000B00021C4094
:101C4000C0E0C0F0C083C082C0D075D000C000C06A
:101C500001C002C003C004C005C006C007758CB82F
:101C6000758A00122061121F98121ABB121F5905A3
:101C70000CD007D006D005D004D003D002D001D0BC
:0C1C800000D0D0D082D083D0F0D0E03271
:0D20AD00BF0409751301E4F50F12080022AD
:1019FE008F33E533B4040E050FE50FD39402404048
:101A0E00E4F50F803BE53364017046E50F70197500
:101A1E00130278A7E6F50908E6F50A08E6F50808C0
:101A2E00E6F50BE4F50E8018E50FB40116751303F9
:101A3E0078ABE6F50D08E6F51408E6F510E4F50EBC
:101A4E00020800E50FB402097513041220DC12120D
:021A5E00312233
:10044E008F33E533B41102800CE533B4011DE50E94
:10045E00C394074012AB0BAD08AF0AAE091207F2F8
:10046E00E4F513F50EE1EE050EE1EEE53364026000
:10047E0002C128E50E704BE50B75F00A84F534E5E4
:10048E000B75F00A8485F0350535E535D3940940B2
:10049E0010E4F535E53494034005E4F534800205A7
:1004AE0034E53475F00AA42535F50BAD08AF0AAE68
:1004BE0009121DC3E50BD39F504AE50B6002C126FE
:1004CE008042E50E64017041E50B75F00A8485F0FB
:1004DE0035E50B75F00A84F5340534E534D3940311
:1004EE004003E4F534E53475F00AA42535F50BAD7B
:1004FE0008AF0AAE09121DC3E50BD39F5006E50BDC
:10050E006002C126750B01C126E50E64027053E52B
:10051E000875F00A84F536E50875F00A8485F0371B
:10052E000537E537D394094010E4F537E5369401E5
:10053E004005E4F53680020536E53675F00AA42549
:10054E0037F508D3940C5004E5087003750801AD17
:10055E0008AF0AAE09121DC3E50BD39F5002C12688
:10056E00C11BE50E64037044E50875F00A8485F03E
:10057E0037E50875F00A84F5360536E536D394016D
:10058E004003E4F536E53675F00AA42537F508D3B1
:10059E00940C5004E5087003750801AD08AF0AAE5F
:1005AE0009121DC3E50BD39F406E8061E50EC39407
:1005BE00044065E50ED39407505E75380075390119
:1005CE00E4F537E50E24FCFFE537C39F5013AE3834
:1005DE00AF397C007D0A120CDB8E388F39053780DF
:1005EE00E2E539250AF50AE5383509F509D3E50AB4
:1005FE009433E50994084006750907750AD0AD08CD
:10060E00AF0AAE09121DC3E50BD39F400BAD08AF69
:10061E000AAE09121DC38F0BE1EEE53364036002CF
:10062E00E1D3E50E7048E50B75F00A84F534E50B61
:10063E0075F00A8485F035E5357010753509E534A9
:10064E0070057534038006153480021535E5347552
:10065E00F00AA42535F50BAD08AF0AAE09121DC37D
:10066E00E50BD39F5047E50B6002E1D1E1C6E50EE5
:10067E006401703BE50B75F00A8485F035E50B756A
:10068E00F00A84F534700575340380021534E534B0
:10069E0075F00AA42535F50BAD08AF0AAE09121D8B
:1006AE00C3E50BD39F5006E50B6002E1D1E1C6E531
:1006BE000E64027050E50875F00A84F536E508758B
:1006CE00F00A8485F037E5377010753709E5367016
:1006DE00057536018006153680021537E53675F03C
:1006EE000AA42537F508D3940C5004E50870037559
:1006FE00080CAD08AF0AAE09121DC3E50BD39F500F
:10070E0002E1D1E1C6E50E64037041E50875F00A19
:10071E008485F037E50875F00A84F5367005753670
:10072E000180021536E53675F00AA42537F508D393
:10073E00940C5004E508700375080CAD08AF0AAEB2
:10074E0009121DC3E50BD39F4079806CE50EC3944F
:10075E00044070E50ED39407506975380075390161
:10076E00E4F537E50E24FCFFE537C39F5013AE3892
:10077E00AF397C007D0A120CDB8E388F390537803D
:10078E00E2E53924D0FFE5383407FEC3E50A9FE5DC
:10079E00099E5008750908750A33800DC3E50A9540
:1007AE0039F50AE5099538F509AD08AF0AAE091213
:1007BE001DC3E50BD39F400BAD08AF0AAE09121D4A
:1007CE00C38F0B801BE533B40419E4F513F50E78D3
:1007DE00A7E6F50908E6F50A08E6F50808E6F50BBA
:0407EE0012080022CB
:101000008F33E533B4110BAB10AD14AF0D1220923A
:101010004128E53364017027E50E6003B4010575CE
:101020000E02412DE50EC394054010AB10AD14AF78
:101030000D122092E4F513F50E412D050E412DE51C
:1010400033640260022143E50ED39401501DE4F5A0
:10105000100514E514C3943C50022141E4F5140535
:101060000DE50D941850022141213EE50E640270F9
:101070002CE51475F00A84F534E51475F00A8485BE
:10108000F0350535E535D394094034E4F535E534DC
:1010900094054005E4F534802605348022E50EB43D
:1010A0000329E51475F00A8485F035E51475F00A16
:1010B00084F5340534E534D394054003E4F534E590
:1010C0003475F00AA42535F5148076E50E640470B5
:1010D0003BE50D75F00A84F534E50D75F00A84855D
:1010E000F0350535E535D394094010E4F535E534A0
:1010F00094024005E4F53480020534E53475F00AC5
:10110000A42535F50DC3941840378032E50E6405EB
:10111000702FE50D75F00A8485F035E50D75F00A40
:1011200084F5340534E534D394024003E4F534E522
:101130003475F00AA42535F50DC394184003E4F581
:101140000D412DE533640360024123E50ED3940184
:101150005005E4F5104121E50E64027029E514758F
:10116000F00A84F534E51475F00A8485F035E53528
:101170007010753509E53470057534058027153410
:1011800080231535801FE50EB40326E51475F00A9B
:101190008485F035E51475F00A84F53470057534EE
:1011A0000580021534E53475F00AA42535F5148060
:1011B00070E50E64047038E50D75F00A84F534E5C9
:1011C0000D75F00A8485F035E5357010753509E543
:1011D0003470057534028006153480021535E53407
:1011E00075F00AA42535F50DC394184034802FE519
:1011F0000E6405702CE50D75F00A8485F035E50D5B
:1012000075F00A84F534700575340280021534E5F2
:101210003475F00AA42535F50DC394184003750DF7
:1012200017800AE533B40408E4F513F50E1208003C
:01123000229B
:101BA7008F33E533B4110812202A1220DC801DE59B
:101BB70033B401107867E6B401051220EB800312F5
:101BC70020E68008E533B40206121A60021231E5F6
:101BD70033B4030A751305E47862F60215D0E533CA
:0D1BE700B40409E4F5131220DC12080022FA
:101B0B008F33E5336402702A7862067861E624032A
:101B1B00FFE433FEEF7802CEC313CE13D8F9F534BE
:101B2B0070037534017862E6C395344002E4F60223
:101B3B0015D0E533B403097513041220DC021231FE
:0F1B4B00E533B40409E4F5131220DC120800227C
:100E6800121B5AE4FFFE0FBF00010EBE27F8BF1089
:100E7800F5120FFC122017122072C2A012080012DD
:100E88001FEB121D598F32E532602078ACE6FFB4B3
:100E98003B0E08E6FEC394374006EED3943B400869
:100EA800EF700878ADE67003121EF0E51364017068
:100EB80036E5326009E4F511F512D21180303011AF
:100EC8002D0512E51270020511AE11FFE4FCFD7B41
:100ED800507AC3F9F8D3120E105013C211E4F50F6B
:100EE800F5131208008007D211E4F511F512E51385
:100EF80014602A14602024FE600E1460122402700C
:100F080023AF321210008021AF32121BA7801AAF14
:100F180032121B0B8013AF3212044E800CAF321208
:100F280019FE8005AF321220AD300F23C20F1219FF
:100F38009CE513B40303121F14E513600F640160EA
:100F48000BE51364026005E513B40303120800E51A
:100F58001364046002C18AE50CC394025002C18A7A
:080F6800E4F50C121231C18AFC
:0D185300056300000000000161000162005B
:102017007863120E4F00000000E47867F67861F6E7
:0320270008F62296
:101F98007867E6B401177863120E37EF2401FFE47F
:0E1FA8003EFEE43DFDE43CFC7863120E432255
:0520E60078677601227D
:0520EB00786776022277
:10202A007863120E4F00000000E47867F67861F6D4
:03203A0008F62283
:101A60007861E6C394085052753B00753C00753DA3
:101A700035753E00753F0075403675410075420072
:101A80007543377B007A0079341215017861E6FFDF
:101A900025E025E02468F8A634EF25E025E0246958
:101AA000F8A635EF25E025E0246AF8A636EF25E014
:0B1AB00025E0246BF8A63778610622C1
:101501008B388A39893A7863120E378F478E468D28
:10151100458C44E47B0AFAF9F8120D7EE47B0AFA61
:10152100F9F8120D7EAF03AB41AA42A943EF120CA9
:10153100C9AF47AE46AD45AC44E47B64FAF9F81255
:101541000D7E8F478E468D458C44E47B3CFAF9F83D
:10155100120D7EAF03AB3EAA3FA940EF120CC9AFFB
:1015610047AE46AD45AC44E47B3CFAF9F8120D7E3A
:101571008F478E468D458C44E47B3CFAF9F8120D79
:101581007EAF03AB3BAA3CA93DEF120CC9AF47AEFE
:1015910046AD45AC44E47B3CFAF9F8120D7E8F4729
:1015A1008E468D458C44E47F63FEFDFCAB47AA4625
:1015B100A945A844D3120E26400AE4754763F546AF
:0F15C100F545F544AB38AA39A93AE547020CC9FC
:03000000020F707C
:0C0F7000787FE4F6D8FD7581AE020FB763
:100BD300E709F608DFFA8046E709F208DFFA803E04
:100BE30088828C83E709F0A3DFFA8032E309F608F1
:100BF300DFFA8078E309F208DFFA807088828C8359
:100C0300E309F0A3DFFA806489828A83E0A3F6080C
:100C1300DFFA805889828A83E0A3F208DFFA804CE6
:100C230080D280FA80C680D4806980F280338010BD
:100C330080A680EA809A80A880DA80E280CA803326
:100C430089828A83ECFAE493A3C8C582C8CCC5839E
:100C5300CCF0A3C8C582C8CCC583CCDFE9DEE7806E
:100C63000D89828A83E493A3F608DFF9ECFAA9F0ED
:100C7300EDFB2289828A83ECFAE0A3C8C582C8CC43
:100C8300C583CCF0A3C8C582C8CCC583CCDFEADE5C
:100C9300E880DB89828A83E493A3F208DFF980CCBE
:100CA30088F0EF60010E4E60C388F0ED2402B404B7
:100CB3000050B9F582EB2402B4040050AF2323455E
:060CC3008223900C237354
:100CC900BB010689828A83F0225002F722BBFE010A
:020CD900F32204
:100CDB00EF8DF0A4A8F0CF8CF0A428CE8DF0A42E2D
:020CEB00FE22E7
:100CED00BC000BBE0029EF8DF084FFADF022E4CCEB
:100CFD00F875F008EF2FFFEE33FEEC33FCEE9DECB4
:100D0D00984005FCEE9DFE0FD5F0E9E4CEFD22EDF9
:100D1D00F8F5F0EE8420D21CFEADF075F008EF2F43
:100D2D00FFED33FD4007985006D5F0F222C398FD34
:050D3D000FD5F0EA22D1
:100D420075F008758200EF2FFFEE33FECD33CDCC68
:100D520033CCC58233C5829BED9AEC99E5829840EB
:100D62000CF582EE9BFEED9AFDEC99FC0FD5F0D6C8
:100D7200E4CEFBE4CDFAE4CCF9A88222B800C1B9F2
:100D82000059BA002DEC8BF084CFCECDFCE5F0CB30
:100D9200F97818EF2FFFEE33FEED33FDEC33FCEB69
:100DA20033FB10D703994004EB99FB0FD8E5E4F924
:100DB200FA227818EF2FFFEE33FEED33FDEC33FC11
:100DC200C933C910D7059BE99A4007EC9BFCE99A05
:100DD200F90FD8E0E4C9FAE4CCFB2275F010EF2F4A
:100DE200FFEE33FEED33FDCC33CCC833C810D7074A
:100DF2009BEC9AE899400AED9BFDEC9AFCE899F885
:0E0E02000FD5F0DAE4CDFBE4CCFAE4C8F92217
:100E1000EB9FF5F0EA9E42F0E99D42F0EC6480C859
:060E200064809845F022F9
:100E2600EB9FF5F0EA9E42F0E99D42F0E89C45F022
:010E36002299
:0C0E3700E6FC08E6FD08E6FE08E6FF22E7
:0C0E4300ECF608EDF608EEF608EFF622DB
:100E4F00D083D082E493F608740193F6087402936A
:090E5F00F608740393F6740473A1
:100F7C00020E68E493A3F8E493A34003F68001F215
:100F8C0008DFF48029E493A3F85407240CC8C33376
:100F9C00C4540F4420C8834004F456800146F6DF45
:100FAC00E4800B01020408102040809017F2E47ECC
:100FBC00019360BCA3FF543F30E509541FFEE4933A
:100FCC00A360010ECF54C025E060A840B8E493A301
:100FDC00FAE493A3F8E493A3C8C582C8CAC583CA2C
:100FEC00F0A3C8C582C8CAC583CADFE9DEE780BEE4
:011860000087
:00000001FF
